:020000040800F2
:10000000D0080020F5010008FD010008FF010008EC
:1000100001020008030200080502000800000000B9
:1000200000000000000000000000000007020008BF
:1000300009020008000000000B0200080D02000881
:100040000F0200080F0200080F0200080F0200084C
:100050000F0200080F020008B10200089104000816
:10006000D104000811050008510500080F0200081E
:100070000F0200080F0200080F0200080F0200081C
:100080000F0200080F0200080F0200080F0200080C
:100090000F0200080F0200080F0200089105000877
:1000A0000F020008110900080F0200080F020008E3
:1000B00071090008C1090008210A00080F020008A0
:1000C0000F0200080F0200080F0200080F020008CC
:1000D0000F020008750A0008C90A00081D0B000875
:1000E000F10200080F0200080F02000800F002F8F9
:1000F00000F070F814A696E8000CB244B344DA4558
:1001000001D100F067F8BAE80F000FA696E83000BA
:10011000A5EB040504EB0607AAEB0704A7F101070A
:100120004FEA15154FEA3414A4F10104AC4201D38F
:1001300000F050F813F0010F18BFFB1A43F0010351
:1001400000F001F8DBE7184780450000A0450000FB
:100150000A444FF0000C10F8013B13F0070408BFED
:1001600010F8014B1D1108BF10F8015B641E05D08B
:1001700010F8016B641E01F8016BF9D113F0080F40
:100180001EBF10F8014BAD1C0C1B09D16D1E58BFD2
:1001900001F801CBFAD505E014F8016B01F8016B09
:1001A0006D1EF9D59142D6D370470000704700000C
:1001B0000023002400250026103A28BF78C1FBD870
:1001C000520728BF30C148BF0B6070471FB51FBD25
:1001D00010B510BD00F031F81146FFF7F7FF01F040
:1001E0001DFD00F04FF803B4FFF7F2FF03BC00F071
:1001F00057F800000948804709480047FEE7FEE736
:10020000FEE7FEE7FEE7FEE7FEE7FEE7FEE7FEE7C6
:1002100004480549054A064B70470000A908000834
:10022000ED000008D0020020D0080020D0040020FB
:10023000D0040020704770477047754600F02CF8D6
:10024000AE4605006946534620F00700854618B0C3
:1002500020B5FFF7DDFFBDE820404FF000064FF06E
:1002600000074FF000084FF0000BAC46ACE8C009A7
:10027000ACE8C009ACE8C009ACE8C00921F007014E
:100280008D46704710B50446AFF300802046BDE8A8
:100290001040FFF7A8BF000000487047B8010020D9
:1002A00001491820ABBEFEE726000200704700009F
:1002B00080B54EF28021CEF20001086840F0400087
:1002C000086040F21441C4F20101086840F00100E6
:1002D000086040F22420C2F20000006838B1FFE755
:1002E00040F22420C2F2000000688047FFE780BD92
:1002F00080B54EF28421CEF20001086840F480708F
:10030000086040F21440C4F201000068800AC0078F
:10031000B8B1FFE740F21441C4F20101086840F4AB
:100320008060086040F22820C2F20000006838B106
:10033000FFE740F22820C2F2000000688047FFE794
:10034000A4E040F21440C4F201000068C00AC007F3
:10035000B8B1FFE740F21441C4F20101086840F46B
:100360000060086040F22C20C2F20000006838B142
:10037000FFE740F22C20C2F2000000688047FFE750
:1003800083E040F21440C4F201000068000BC00793
:10039000B8B1FFE740F21441C4F20101086840F42B
:1003A0008050086040F23020C2F20000006838B18E
:1003B000FFE740F23020C2F2000000688047FFE70C
:1003C00062E040F21440C4F201000068400BC00734
:1003D000B8B1FFE740F21441C4F20101086840F4EB
:1003E0000050086040F23420C2F20000006838B1CA
:1003F000FFE740F23420C2F2000000688047FFE7C8
:1004000041E040F21440C4F201000068800BC007D4
:10041000B8B1FFE740F21441C4F20101086840F4AA
:100420008040086040F23820C2F20000006838B115
:10043000FFE740F23820C2F2000000688047FFE783
:1004400020E040F21440C4F201000068C00BC00775
:10045000B8B1FFE740F21441C4F20101086840F46A
:100460000040086040F23C20C2F20000006838B151
:10047000FFE740F23C20C2F2000000688047FFE73F
:10048000FFE7FFE7FFE7FFE7FFE7FFE780BD0000CB
:1004900080B54EF28021CEF20001086840F0800065
:1004A000086040F21441C4F20101086840F0020003
:1004B000086040F24020C2F20000006838B1FFE757
:1004C00040F24020C2F2000000688047FFE780BD94
:1004D00080B54EF28021CEF20001086840F48070B1
:1004E000086040F21441C4F20101086840F00400C1
:1004F000086040F24420C2F20000006838B1FFE713
:1005000040F24420C2F2000000688047FFE780BD4F
:1005100080B54EF28021CEF20001086840F40070F0
:10052000086040F21441C4F20101086840F008007C
:10053000086040F24820C2F20000006838B1FFE7CE
:1005400040F24820C2F2000000688047FFE780BD0B
:1005500080B54EF28021CEF20001086840F4806040
:10056000086040F21441C4F20101086840F0100034
:10057000086040F24C20C2F20000006838B1FFE78A
:1005800040F24C20C2F2000000688047FFE780BDC7
:1005900080B54EF28021CEF20001086840F40000E0
:1005A000086040F21440C4F2010000684009C0072E
:1005B000B8B1FFE740F21441C4F20101086840F00D
:1005C0002000086040F25020C2F20000006838B1FC
:1005D000FFE740F25020C2F2000000688047FFE7CA
:1005E00083E040F21440C4F2010000688009C007B3
:1005F000B8B1FFE740F21441C4F20101086840F0CD
:100600004000086040F25420C2F20000006838B197
:10061000FFE740F25420C2F2000000688047FFE785
:1006200062E040F21440C4F201000068C009C00753
:10063000B8B1FFE740F21441C4F20101086840F08C
:100640008000086040F25820C2F20000006838B113
:10065000FFE740F25820C2F2000000688047FFE741
:1006600041E040F21440C4F201000068000AC007F3
:10067000B8B1FFE740F21441C4F20101086840F448
:100680008070086040F25C20C2F20000006838B15F
:10069000FFE740F25C20C2F2000000688047FFE7FD
:1006A00020E040F21440C4F201000068400AC00794
:1006B000B8B1FFE740F21441C4F20101086840F408
:1006C0000070086040F26020C2F20000006838B19B
:1006D000FFE740F26020C2F2000000688047FFE7B9
:1006E000FFE7FFE7FFE7FFE7FFE780BD81B00120FD
:1006F0008DF8030042F60C41C4F20101086840F095
:10070000010008604EF20011CEF20001086840F0CE
:10071000007008609DF8030001B0704781B00120AF
:100720008DF803000C21C4F20001086840F00100BC
:1007300008604EF20011CEF20001086840F08050CF
:1007400008609DF8030001B07047000081B00120EF
:100750008DF8030040F60C01C4F20001086840F077
:10076000010008604EF20011CEF20001086840F06E
:10077000804008609DF8030001B0704780B500F02C
:1007800001F880BD84B000200390029041F2000186
:10079000C4F20201086840F480300860FFE741F2CB
:1007A0000000C4F20200006800F4003002900398D8
:1007B00001300390FFE702990020019039B9FFE76B
:1007C0000398B0F5A06018BF01200190FFE70198E1
:1007D000C0070028E3D1FFE741F20000C4F20200A5
:1007E00000688003002803D5FFE70120029002E0A3
:1007F00000200290FFE70298012851D1FFE742F262
:100800000001C4F20201086840F0100008600868A6
:1008100020F007000860086840F00200086041F21C
:100820000401C4F2020100910868086008680860C9
:10083000086840F480600860086820F47C10086054
:10084000086840F4E810086041F20001C4F20201B7
:10085000086840F080700860FFE741F20000C4F2D1
:10086000020000688001002801D4FFE7F5E741F2AB
:100870000401C4F20201086820F00300086008685F
:1008800040F002000860FFE741F20400C4F20200F9
:10089000006800F00C00082801D0FFE7F4E700E052
:1008A000FFE704B07047000080B541F20002C4F2D7
:1008B0000202106840F00100106041F20401C4F22D
:1008C000020108680023CFF6FF0318400860106893
:1008D0004FF6FF73CFF6F66318401060106820F4EF
:1008E00080201060086820F4FE00086041F20801D2
:1008F000C4F202014FF41F000860FFF73FFF4EF6FD
:100900000851CEF200014FF00060086080BD000089
:1009100080B54EF28021CEF20001086840F00070F0
:10092000086042F61040C4F201000068C007E8B158
:10093000FFE742F61041C4F20101086820F001000F
:10094000086040F29C21C2F200010120086040F2E0
:100950007820C2F20000006838B1FFE740F278204A
:10096000C2F2000000688047FFE7FFE780BD00009B
:1009700080B54EF28021CEF20001086840F0805030
:1009800008601020C4F200000068C007B0B1FFE7A3
:100990001021C4F20001086820F00100086040F254
:1009A0007C20C2F20000006838B1FFE740F27C20F2
:1009B000C2F2000000688047FFE7FFE780BD00004B
:1009C00080B54EF28021CEF20001086840F0005060
:1009D000086040F21040C4F200000068C007E8B1AF
:1009E000FFE740F21041C4F20001086820F0010066
:1009F000086040F29821C2F200010120087040F224
:100A00008020C2F20000006838B1FFE740F2802089
:100A1000C2F2000000688047FFE7FFE780BD0000EA
:100A200080B54EF28021CEF20001086840F080408F
:100A3000086040F61000C4F200000068C007B8B1BA
:100A4000FFE740F61001C4F20001086820F0010041
:100A5000086040F28420C2F20000006838B1FFE76D
:100A600040F28420C2F2000000688047FFE7FFE701
:100A700080BD000080B543F60000C4F201000068AC
:100A8000800600280FD5FFE740F28C20C2F200005C
:100A9000006838B1FFE740F28C20C2F20000006825
:100AA0008047FFE7FFE74EF28421CEF2000108689D
:100AB00040F02000086043F60001C4F2010108681C
:100AC00020F02000086080BD80B544F20040C4F2F0
:100AD00000000068800600280FD5FFE740F2902054
:100AE000C2F20000006838B1FFE740F29020C2F285
:100AF000000000688047FFE7FFE74EF28421CEF256
:100B00000001086840F04000086044F20041C4F26F
:100B10000001086820F02000086080BD80B544F620
:100B20000000C4F200000068800600280FD5FFE72F
:100B300040F29420C2F20000006838B1FFE740F2B2
:100B40009420C2F2000000688047FFE7FFE74EF202
:100B50008421CEF20001086840F08000086044F66D
:100B60000001C4F20001086820F02000086080BD88
:100B700082B0019001208DF80300019820B9FFE7B1
:100B800000208DF8030013E00198C078022805D0FA
:100B9000FFE70198C078032809D1FFE741F2180167
:100BA000C4F20201086840F001000860FFE7FFE7B7
:100BB0009DF8030002B0704783B0029001208DF8C9
:100BC0000700029820B9FFE700208DF807002DE00C
:100BD000029800780146009140B1FFE70098012893
:100BE0000DD0FFE70098022812D01AE041F2180158
:100BF000C4F20201086840F00400086015E041F208
:100C00001801C4F20201086840F0080008600CE016
:100C100041F21801C4F20201086840F010000860B7
:100C200003E000208DF80700FFE7FFE79DF80700CD
:100C300003B0704780B584B0039001208DF80B009D
:100C4000039820B9FFE700208DF80B0057E00398C8
:100C5000FFF7B2FF8DF80B000398FFF789FF8DF8BF
:100C60000B009DF80B0030B1FFE7039800F0C6FCC5
:100C70008DF80B00FFE79DF80B0030B1FFE70398FC
:100C800000F0ECF88DF80B00FFE7039800780146C0
:100C9000019140B1FFE70198012811D0FFE70198C9
:100CA00002281AD026E003984178012000FA01F2C8
:100CB00040F60C01C4F201010868904308601DE091
:100CC00003984178012000FA01F240F60C41C4F289
:100CD000010108689043086010E003984178012002
:100CE00000FA01F241F20C01C4F2010108689043DC
:100CF000086003E000208DF80B00FFE7FFE79DF898
:100D00000B0004B080BD000086B005908DF8131074
:100D100001208DF81200059820B9FFE700208DF81A
:100D2000120096E0059800780146039140B1FFE774
:100D3000039801282DD0FFE70398022852D07AE0CB
:100D40009DF813000146029120B1FFE702980128A7
:100D50000DD019E005984178012000FA01F240F623
:100D60000C01C4F2010108689043086010E0059886
:100D70004178012000FA01F240F60C01C4F20101B1
:100D800008681043086003E000208DF81200FFE7B8
:100D900055E09DF813000146019120B1FFE701984D
:100DA00001280DD019E005984178012000FA01F2E0
:100DB00040F60C41C4F2010108689043086010E05D
:100DC00005984178012000FA01F240F60C41C4F286
:100DD000010108681043086003E000208DF812004C
:100DE000FFE72CE09DF813000146009120B1FFE7DA
:100DF000009801280DD019E005984178012000FAEB
:100E000001F241F20C01C4F201010868904308604C
:100E100010E005984178012000FA01F241F20C013E
:100E2000C4F2010108681043086003E000208DF857
:100E30001200FFE703E000208DF81200FFE79DF8A5
:100E4000120028B1FFE79DF8130005990871FFE72C
:100E5000FFE79DF8120006B07047000084B00390D1
:100E600001208DF80B00039820B9FFE700208DF8D2
:100E70000B00BFE303984078072800F3C081FFE729
:100E8000039800780146019150B1FFE701980128CD
:100E900000F09480FFE70198022800F01D81A9E18D
:100EA0000398C078E0B9FFE70398C078C0B9FFE7BE
:100EB000039840788000811C012000FA01F340F67D
:100EC0000001C4F201010A689A430A60039A527849
:100ED0009200033200FA02F20868904308606CE066
:100EE0000398C07801281DD1FFE70398C078012836
:100EF00018D1FFE7039840788000811C012000FA98
:100F000001F340F60001C4F201010A681A430A60C5
:100F1000039A52789200033200FA02F20868904372
:100F2000086049E00398C07802281DD1FFE70398C4
:100F3000C078022818D1FFE7039840788000811C10
:100F4000012000FA01F340F60001C4F201010A6831
:100F50009A430A60039A52789200033200FA02F22E
:100F600008681043086026E00398C07803281DD164
:100F7000FFE70398C078032818D1FFE7039840786B
:100F80008000811C012000FA01F340F60001C4F248
:100F900001010A681A430A60039A527892000332E8
:100FA00000FA02F208681043086003E000208DF8A0
:100FB0000B00FFE7FFE7FFE7FFE71FE10398C078BB
:100FC000E0B9FFE70398C078C0B9FFE7039840781D
:100FD0008000811C012000FA01F340F60041C4F2B8
:100FE00001010A689A430A60039A52789200033218
:100FF00000FA02F20868904308606CE00398C07839
:1010000001281DD1FFE70398C078012818D1FFE718
:10101000039840788000811C012000FA01F340F61B
:101020000041C4F201010A681A430A60039A527827
:101030009200033200FA02F208689043086049E027
:101040000398C07802281DD1FFE70398C0780228D2
:1010500018D1FFE7039840788000811C012000FA36
:1010600001F340F60041C4F201010A689A430A60A4
:10107000039A52789200033200FA02F20868104391
:10108000086026E00398C07803281DD1FFE7039885
:10109000C078032818D1FFE7039840788000811CAE
:1010A000012000FA01F340F60041C4F201010A6890
:1010B0001A430A60039A52789200033200FA02F24D
:1010C00008681043086003E000208DF80B00FFE77C
:1010D000FFE7FFE7FFE791E00398C078E0B9FFE79B
:1010E0000398C078C0B9FFE7039840788000811C5E
:1010F000012000FA01F341F20001C4F201010A6883
:101100009A430A60039A52789200033200FA02F27C
:101110000868904308606CE00398C07801281DD1EE
:10112000FFE70398C078012818D1FFE703984078BB
:101130008000811C012000FA01F341F20001C4F299
:1011400001010A681A430A60039A52789200033236
:1011500000FA02F208689043086049E00398C078FA
:1011600002281DD1FFE70398C078022818D1FFE7B5
:10117000039840788000811C012000FA01F341F2BD
:101180000001C4F201010A689A430A60039A527886
:101190009200033200FA02F208681043086026E069
:1011A0000398C07803281DD1FFE70398C07803286F
:1011B00018D1FFE7039840788000811C012000FAD5
:1011C00001F341F20001C4F201010A681A430A6006
:1011D000039A52789200033200FA02F20868104330
:1011E000086003E000208DF80B00FFE7FFE7FFE752
:1011F000FFE703E000208DF80B00FFE7F9E103981B
:1012000040780F2800F3F081FFE70398007801464B
:10121000009150B1FFE70098012800F0A480FFE79B
:101220000098022800F03D81D9E10398C07800BB06
:10123000FFE70398C078E0B9FFE7039841786FF0C3
:101240001D0000EB8101012000FA01F340F60401CA
:10125000C4F201010A689A430A60039A53786FF056
:101260001C0202EB830200FA02F208689043086055
:1012700078E00398C078012821D1FFE70398C0786F
:1012800001281CD1FFE7039841786FF01D0000EBA7
:101290008101012000FA01F340F60401C4F20101CA
:1012A0000A681A430A60039A53786FF01C0202EB33
:1012B000830200FA02F208689043086051E0039844
:1012C000C078022821D1FFE70398C07802281CD1FA
:1012D000FFE7039841786FF01D0000EB81010120CA
:1012E00000FA01F340F60401C4F201010A689A43CE
:1012F0000A60039A53786FF01C0202EB830200FA33
:1013000002F20868104308602AE00398C0780328B6
:1013100021D1FFE70398C07803281CD1FFE7039889
:1013200041786FF01D0000EB8101012000FA01F30C
:1013300040F60401C4F201010A681A430A60039AE4
:1013400053786FF01C0202EB830200FA02F2086885
:101350001043086003E000208DF80B00FFE7FFE773
:10136000FFE7FFE73FE10398C07800BBFFE7039882
:10137000C078E0B9FFE7039841786FF01D0000EBFB
:101380008101012000FA01F340F60441C4F2010199
:101390000A689A430A60039A53786FF01C0202EBC2
:1013A000830200FA02F208689043086078E003982C
:1013B000C078012821D1FFE70398C07801281CD10B
:1013C000FFE7039841786FF01D0000EB81010120D9
:1013D00000FA01F340F60441C4F201010A681A431D
:1013E0000A60039A53786FF01C0202EB830200FA42
:1013F00002F208689043086051E00398C078022820
:1014000021D1FFE70398C07802281CD1FFE7039899
:1014100041786FF01D0000EB8101012000FA01F31B
:1014200040F60441C4F201010A689A430A60039A33
:1014300053786FF01C0202EB830200FA02F2086894
:10144000104308602AE00398C078032821D1FFE701
:101450000398C07803281CD1FFE7039841786FF008
:101460001D0000EB8101012000FA01F340F6044168
:10147000C4F201010A681A430A60039A53786FF0B4
:101480001C0202EB830200FA02F2086810430860B3
:1014900003E000208DF80B00FFE7FFE7FFE7FFE721
:1014A000A1E00398C07800BBFFE70398C078E0B9DB
:1014B000FFE7039841786FF01D0000EB81010120E8
:1014C00000FA01F341F20401C4F201010A689A43EF
:1014D0000A60039A53786FF01C0202EB830200FA51
:1014E00002F208689043086078E00398C078012809
:1014F00021D1FFE70398C07801281CD1FFE70398AA
:1015000041786FF01D0000EB8101012000FA01F32A
:1015100041F20401C4F201010A681A430A60039A05
:1015200053786FF01C0202EB830200FA02F20868A3
:101530009043086051E00398C078022821D1FFE76A
:101540000398C07802281CD1FFE7039841786FF018
:101550001D0000EB8101012000FA01F341F20401BA
:10156000C4F201010A689A430A60039A53786FF043
:101570001C0202EB830200FA02F2086810430860C2
:101580002AE00398C078032821D1FFE70398C078A8
:1015900003281CD1FFE7039841786FF01D0000EB92
:1015A0008101012000FA01F341F20401C4F20101BA
:1015B0000A681A430A60039A53786FF01C0202EB20
:1015C000830200FA02F208681043086003E000207A
:1015D0008DF80B00FFE7FFE7FFE7FFE703E00020E0
:1015E0008DF80B00FFE703E000208DF80B00FFE70C
:1015F000FFE7FFE79DF80B0004B070478AB0099041
:1016000001208DF82300099820B9FFE700208DF80C
:101610002300FEE209984078072800F35981FFE78C
:10162000099800780146079148B1FFE7079801281B
:1016300071D0FFE70798022800F0D98043E10998AC
:10164000807801460691032860D80699DFE801F00A
:1016500002193047099840788100012000FA01F30F
:1016600040F60001C4F201010A689A430A60099A2F
:1016700052789200013200FA02F208689043086042
:1016800048E0099840788100012000FA01F340F613
:101690000001C4F201010A681A430A60099A5278EB
:1016A0009200013200FA02F208689043086031E0CB
:1016B000099840788100012000FA01F340F600010A
:1016C000C4F201010A689A430A60099A52789200AA
:1016D000013200FA02F20868104308601AE0099823
:1016E00040788100012000FA01F340F60001C4F2C5
:1016F00001010A681A430A60099A5278920001327D
:1017000000FA02F208681043086003E000208DF838
:101710002300FFE7DBE00998807801460591032864
:1017200060D80599DFE801F0021930470998407840
:101730008100012000FA01F340F60041C4F20101EA
:101740000A689A430A60099A52789200013200FAB4
:1017500002F208689043086048E0099840788100E8
:10176000012000FA01F340F60041C4F201010A68C9
:101770001A430A60099A52789200013200FA02F282
:1017800008689043086031E00998407881000120A2
:1017900000FA01F340F60041C4F201010A689A43DD
:1017A0000A60099A52789200013200FA02F208683F
:1017B000104308601AE0099840788100012000FA7F
:1017C00001F340F60041C4F201010A681A430A60BD
:1017D000099A52789200013200FA02F20868104326
:1017E000086003E000208DF82300FFE76FE0099810
:1017F000807801460491032860D80499DFE801F05D
:1018000002193047099840788100012000FA01F35D
:1018100041F20001C4F201010A689A430A60099A80
:1018200052789200013200FA02F208689043086090
:1018300048E0099840788100012000FA01F341F264
:101840000001C4F201010A681A430A60099A527839
:101850009200013200FA02F208689043086031E019
:10186000099840788100012000FA01F341F200015B
:10187000C4F201010A689A430A60099A52789200F8
:10188000013200FA02F20868104308601AE0099871
:1018900040788100012000FA01F341F20001C4F216
:1018A00001010A681A430A60099A527892000132CB
:1018B00000FA02F208681043086003E000208DF887
:1018C0002300FFE703E000208DF82300FFE79FE1FE
:1018D000099840780F2800F39681FFE7099800786F
:1018E0000146039150B1FFE70398012800F086807C
:1018F000FFE70398022800F001817FE109988078D2
:1019000001460291032874D80299DFE801F0021E13
:101910003A56099841786FF01F0000EB81010120D1
:1019200000FA01F340F60401C4F201010A689A4387
:101930000A60099A53786FF01E0202EB830200FAE4
:1019400002F208689043086057E0099841786FF008
:101950001F0000EB8101012000FA01F340F60401B1
:10196000C4F201010A681A430A60099A53786FF0B9
:101970001E0202EB830200FA02F20868904308603C
:101980003BE0099841786FF01F0000EB81010120D6
:1019900000FA01F340F60401C4F201010A689A4317
:1019A0000A60099A53786FF01E0202EB830200FA74
:1019B00002F20868104308601FE0099841786FF050
:1019C0001F0000EB8101012000FA01F340F6040141
:1019D000C4F201010A681A430A60099A53786FF049
:1019E0001E0202EB830200FA02F20868104308604C
:1019F00003E000208DF82300FFE703E109988078D9
:101A000001460191032874D80199DFE801F0021E14
:101A10003A56099841786FF01F0000EB81010120D0
:101A200000FA01F340F60441C4F201010A689A4346
:101A30000A60099A53786FF01E0202EB830200FAE3
:101A400002F208689043086057E0099841786FF007
:101A50001F0000EB8101012000FA01F340F6044170
:101A6000C4F201010A681A430A60099A53786FF0B8
:101A70001E0202EB830200FA02F20868904308603B
:101A80003BE0099841786FF01F0000EB81010120D5
:101A900000FA01F340F60441C4F201010A689A43D6
:101AA0000A60099A53786FF01E0202EB830200FA73
:101AB00002F20868104308601FE0099841786FF04F
:101AC0001F0000EB8101012000FA01F340F6044100
:101AD000C4F201010A681A430A60099A53786FF048
:101AE0001E0202EB830200FA02F20868104308604B
:101AF00003E000208DF82300FFE783E00998807859
:101B000001460091032874D80099DFE801F0021E15
:101B10003A56099841786FF01F0000EB81010120CF
:101B200000FA01F341F20401C4F201010A689A4388
:101B30000A60099A53786FF01E0202EB830200FAE2
:101B400002F208689043086057E0099841786FF006
:101B50001F0000EB8101012000FA01F341F20401B2
:101B6000C4F201010A681A430A60099A53786FF0B7
:101B70001E0202EB830200FA02F20868904308603A
:101B80003BE0099841786FF01F0000EB81010120D4
:101B900000FA01F341F20401C4F201010A689A4318
:101BA0000A60099A53786FF01E0202EB830200FA72
:101BB00002F20868104308601FE0099841786FF04E
:101BC0001F0000EB8101012000FA01F341F2040142
:101BD000C4F201010A681A430A60099A53786FF047
:101BE0001E0202EB830200FA02F20868104308604A
:101BF00003E000208DF82300FFE703E000208DF8CC
:101C00002300FFE703E000208DF82300FFE7FFE754
:101C1000FFE79DF823000AB07047000080B584B04C
:101C20000020039040F24010C2F2000000F06EFE6F
:101C300040F2AC20C2F2000001F018F840F24C1063
:101C4000C2F2000001F066FE40F2A000C2F2000005
:101C500000F082FA40F2E000C2F2000000F07CFAEC
:101C600040F26000C2F2000000F076FA40F220007C
:101C7000C2F2000000F070FA40F2C000C2F20000B0
:101C800000F06AFA40F28000C2F2000000F064FA4C
:101C900040F20000C2F2000000F05EFA40F24000A4
:101CA000C2F2000000F058FA40F22310C2F2000025
:101CB000FEF7C0FF40F22810C2F20000FEF7BAFFA4
:101CC00040F22D10C2F20000FEF7B4FFFFE740F231
:101CD000B020C2F200000078B0B9FFE740F24C102B
:101CE000C2F2000042F61171C0F60001016043F635
:101CF0009821416001F00EFE40F2B021C2F20001D5
:101D0000087801300870FFE740F26920C2F2000055
:101D100002900D2101F0C8F80298007845284BD1B7
:101D2000FFE740F26920C2F20000007B602843D147
:101D3000FFE740F22810C2F200000121FEF7E4FFA5
:101D400040F26920C2F200000190417840F268221E
:101D5000C2F2000211708178C27841EA022140F299
:101D60008822C2F2000211800179427941EA0221FF
:101D700040F28A22C2F2000211808179C27941EADE
:101D8000022140F21E22C2F200021180017A427A40
:101D900041EA022140F21A22C2F200021180817A45
:101DA000C27A41EA022140F26622C2F200021180A8
:101DB0000D2100F0D3FEFFE789E700002DE9F04197
:101DC00094B01D4614460F4606461F991E981D9B4B
:101DD0001C9ADDF86CE0DDF868C013971296119537
:101DE0001094CDF83CE0CDF838C00D930C920B91D7
:101DF0000A900020099008900C980D990E9A0F9B5C
:101E000002F0D8FA0090019110981199129A139B40
:101E100002F0D0FA024600980B46019901F07CFFCF
:101E2000079106900E9804900F98059006980290DE
:101E3000079803900A980B99129A139B02F0BAFA2A
:101E4000024602980B46039902F0B6F9049A059BE4
:101E500001F0AEFE099108900898099914B0BDE808
:101E6000F081000080B584B0039001208DF80B0054
:101E7000039820B9FFE700208DF80B002FE0002029
:101E80008DF8060003208DF8080002208DF8090067
:101E900003980079013801460091032814D800996D
:101EA000DFE801F002060A0E00208DF807000FE0BF
:101EB00001208DF807000BE002208DF8070007E0F5
:101EC00003208DF8070003E000208DF80B00FFE7EA
:101ED0000DF10600FEF7AEFE8DF80B00FFE79DF852
:101EE0000B0004B080BD000080B584B003900120D9
:101EF0008DF80B00039820B9FFE700208DF80B0048
:101F00002FE001208DF8060003208DF80800022044
:101F10008DF80900039800790138014600910328E3
:101F200014D80099DFE801F002060A0E06208DF8A9
:101F300007000FE007208DF807000BE008208DF860
:101F4000070007E009208DF8070003E000208DF866
:101F50000B00FFE70DF10600FEF76CFE8DF80B009D
:101F6000FFE79DF80B0004B080BD000080B58AB08B
:101F7000089001208DF81F00089820B9FFE7002085
:101F80008DF81F001FE008980169426968464261A8
:101F9000016148F60001C4F2A301C1600022826021
:101FA00044F20001C4F27F014160026048F2000384
:101FB000C4F2660310461146FFF700FF02F042F834
:101FC00008990883FFE79DF827000AB080BD00004C
:101FD00080B588B0079001208DF81B00079820B9C4
:101FE000FFE700208DF81B001CE00798807EC0B141
:101FF000FFE7079801694269684642610161002272
:10200000C260826048F20003C4F26603436002606B
:1020100010461146FFF7D2FE0A4607994A61086149
:10202000FFE7FFE79DF81B0008B080BD80B588B0D2
:1020300007900593049201208DF80F00079820B9AE
:10204000FFE700208DF80F0082E00498059A0799B9
:102050004A6108610798FFF7BBFF0798FFF786FF03
:102060000798007801460291022804D0FFE7029801
:10207000042834D067E0079840780146019103288E
:1020800028D80199DFE801F0020B141D0798018B95
:1020900040F25410C2F2000001F0CCFC1EE00798A0
:1020A000018B40F26010C2F2000001F0C3FC15E0A9
:1020B0000798018B40F26C10C2F2000001F0BAFCEC
:1020C0000CE00798018B40F27810C2F2000001F09A
:1020D000B1FC03E000208DF80F00FFE737E0079820
:1020E000407801460091032828D80099DFE801F0E4
:1020F000020B141D0798018B40F28410C2F20000FD
:1021000001F020FD1EE00798018B40F29010C2F212
:10211000000001F017FD15E00798018B40F29C10BC
:10212000C2F2000001F00EFD0CE00798018B40F2B6
:10213000A810C2F2000001F005FD03E000208DF8B8
:102140000F00FFE703E000208DF80F00FFE7FFE737
:102150009DF80F0008B080BD80B58EB00D900120B5
:102160008DF833000D9820B9FFE700208DF833007B
:10217000F5E00D98FFF72CFF0D98FFF7F7FE0D988F
:10218000007801460B91022804D0FFE70B98042841
:1021900070D0DFE00D98407801460A91032864D89A
:1021A0000A99DFE801F0021A324A40F25410C2F2F2
:1021B0000000099044F6206101600D99098B81604F
:1021C00001F0F8FB014609988DF833100D99098B41
:1021D00001F030FC8DF833004BE040F26010C2F2A9
:1021E0000000089044F6206101600D99098B816020
:1021F00001F0E0FB014608988DF833100D99098B2A
:1022000001F018FC8DF8330033E040F26C10C2F29C
:102210000000079044F6206101600D99098B8160F0
:1022200001F0C8FB014607988DF833100D99098B12
:1022300001F000FC8DF833001BE040F27810C2F290
:102240000000069044F6206101600D99098B8160C1
:1022500001F0B0FB014606988DF833100D99098BFB
:1022600001F0E8FB8DF8330003E000208DF8330027
:10227000FFE773E00D98407801460591032864D884
:102280000599DFE801F0021A324A40F28410C2F2E6
:102290000000049044F6206101600D99098B816073
:1022A00001F00CFC014604988DF833100D99098B50
:1022B00001F048FC8DF833004BE040F29010C2F280
:1022C0000000039044F6206101600D99098B816044
:1022D00001F0F4FB014603988DF833100D99098B3A
:1022E00001F030FC8DF8330033E040F29C10C2F274
:1022F0000000029044F6206101600D99098B816015
:1023000001F0DCFB014602988DF833100D99098B22
:1023100001F018FC8DF833001BE040F2A810C2F267
:102320000000019044F6206101600D99098B8160E5
:1023300001F0C4FB014601988DF833100D99098B0B
:1023400001F000FC8DF8330003E000208DF833002D
:10235000FFE703E000208DF83300FFE7FFE79DF87B
:1023600033000EB080BD000083B0019001208DF8D5
:102370000300019820B9FFE700208DF8030050E02A
:1023800040F2B820C2F20000012101700078C0EBD9
:10239000004040F2B421C2F200010860FFE740F2C1
:1023A000B420C2F20000006801994968884219D23D
:1023B000FFE740F2B820C2F200000178013101705D
:1023C000017801EBC101C90040F23C12C2F20002E7
:1023D00011600078C0EB004040F2B421C2F200016D
:1023E0000860DCE70198406840F2B821C2F20001C1
:1023F0000978B0FBF1F140F2A820C2F200000160C0
:1024000040F23C11C2F20001096842F62842C4F2CF
:1024100001021160006842F62C41C4F2010108601B
:10242000FFE79DF80B0003B07047000088B00690EE
:1024300001208DF81700069820B9FFE700208DF8DD
:102440001700E5E040F2C020C2F200000121017057
:102450000078C0EB004040F2BC21C2F200010860ED
:10246000FFE740F2BC20C2F200000068069909684C
:10247000884219D2FFE740F2C020C2F20000017882
:1024800001310170017801EBC101C90040F2341241
:10249000C2F2000211600078C0EB004040F2BC21A3
:1024A000C2F200010860DCE70698006840F2C02133
:1024B000C2F200010978B0FBF1F140F2A020C2F2B3
:1024C0000000016040F23411C2F2000109682822C4
:1024D000C4F20002116000682C21C4F200010860FF
:1024E0004FF08041086840F080000860069800794D
:1024F000013801460091032800F281800099DFE84D
:1025000001F00221405F2021C4F20001086840F080
:10251000010008601821C4F2000108684FF68F72AC
:1025200010400860086840F0600008600490086887
:1025300040F008000860069880683421C4F2000169
:10254000086060E02021C4F20001086840F010003B
:1025500008601821C4F20001086848F6FF721040B4
:102560000860086840F4C04008600390086840F4C0
:1025700000600860069880683821C4F20001086095
:1025800041E02021C4F20001086840F48070086036
:102590001C21C4F2000108684FF68F7210400860D9
:1025A000086840F0600008600290086840F0080089
:1025B0000860069880683C21C4F20001086022E0AF
:1025C0002021C4F20001086840F4805008601C21FA
:1025D000C4F20001086848F6FF72104008600868FD
:1025E00040F4C04008600190086840F40060086052
:1025F000069880684021C4F20001086003E00020D2
:102600008DF81700FFE79DF817008DF81F00FFE712
:102610009DF81F0008B0704788B0069001208DF823
:102620001700069820B9FFE700208DF81700F5E0A5
:1026300040F2C820C2F20000012101700078C0EB16
:10264000004040F2C421C2F200010860FFE740F2FE
:10265000C420C2F20000006806990968884219D2B5
:10266000FFE740F2C820C2F200000178013101709A
:10267000017801EBC101C90040F23812C2F2000238
:1026800011600078C0EB004040F2C421C2F20001AA
:102690000860DCE70698006840F2C821C2F2000139
:1026A0000978B0FBF1F140F2A420C2F20000016011
:1026B00040F23811C2F20001096840F62802C4F263
:1026C00000021160006840F62C01C4F200010860AD
:1026D00040F60001C4F20001086840F08000086084
:1026E00006980079013801460091032800F28D8098
:1026F0000099DFE801F00224466840F62001C4F2A8
:102700000001086840F00100086040F61801C4F2BA
:10271000000108684FF68F7210400860086840F0AA
:10272000600008600490086840F00800086006989F
:10273000806840F63401C4F20001086069E040F6A8
:102740002001C4F20001086840F01000086040F663
:102750001801C4F20001086848F6FF7210400860D2
:10276000086840F4C04008600390086840F40060C6
:1027700008600698806840F63801C4F200010860DD
:1027800047E040F62001C4F20001086840F4807080
:10279000086040F61C01C4F2000108684FF68F7211
:1027A00010400860086840F0600008600290086807
:1027B00040F0080008600698806840F63C01C4F2CA
:1027C0000001086025E040F62001C4F2000108681D
:1027D00040F48050086040F61C01C4F20001086813
:1027E00048F6FF7210400860086840F4C040086076
:1027F0000190086840F4006008600698806840F620
:102800004001C4F20001086003E000208DF81700C9
:10281000FFE79DF817008DF81F00FFE79DF81F00E8
:1028200008B0704782B0019001208DF80300019834
:1028300020B9FFE700208DF8030031E0019800790E
:1028400001280FD0FFE70198007903280AD0FFE79D
:1028500001980079052805D0FFE70198007907283D
:1028600009D1FFE743F20001C4F20101086840F01A
:1028700008000860FFE70198007940088DF8020021
:1028800043F20001C4F2010108684FF6CF72104014
:1028900008609DF80220086840EA02100860FFE71F
:1028A0009DF8030002B0704783B0029001208DF8BC
:1028B0000700029820B9FFE700208DF8070020E00C
:1028C0000298C0780146009120B1FFE700980128E6
:1028D00009D011E043F20001C4F20101086820F4BC
:1028E000006008600CE043F20001C4F201010868D6
:1028F00040F40060086003E000208DF80700FFE767
:10290000FFE79DF8070003B07047000080B582B074
:10291000019001208DF80300019820B9FFE7002005
:102920008DF8030024E041F21801C4F202010868A6
:1029300040F480500860019800F01EF88DF8030004
:10294000019800F0B9F88DF803000198FFF7ACFF8B
:102950008DF803000198FFF765FF8DF8030043F23F
:102960000001C4F20101086840F040000860FFE780
:102970009DF8030002B080BD80B588B007900120AB
:102980008DF81B00079820B9FFE700208DF81B0089
:102990008EE041F21801C4F20201086840F4805050
:1029A0000860079800780146059100284AD0FFE7A3
:1029B0000598012877D1FFE740F20A10C2F2000023
:1029C000032282700221C17040F20513C2F200039B
:1029D00003939A70D97040F2001CC2F2000CCDF83B
:1029E00010C000218CF8021001238CF80330079BE3
:1029F000DA71079A1172FEF71DF9014603988DF8F6
:102A00001B10FEF717F9014604988DF81B10FEF70E
:102A100011F98DF81B0007980530FEF70BF98DF8BA
:102A20001B0043F20001C4F20101086840F4007089
:102A30000860086840F480700860086840F004008E
:102A4000086034E040F20A10C2F2000000238370F4
:102A50000121C17040F20512C2F20002019293708E
:102A6000D17040F20012C2F2000202920321917072
:102A70000221D170FEF7DEF8014601988DF81B1097
:102A8000FEF7D8F8014602988DF81B10FEF7D2F831
:102A90008DF81B0043F20001C4F20101086820F028
:102AA0000400086003E000208DF81B00FFE7FFE74B
:102AB0009DF81B0008B080BD84B0039001208DF804
:102AC0000B00039820B9FFE700208DF80B0040E0D1
:102AD000039840780146019168B1FFE70198012809
:102AE00012D1FFE743F20001C4F20101086840F08F
:102AF000020008600CE043F20001C4F20101086822
:102B000020F00200086003E000208DF80B00FFE7D2
:102B1000039880780146009120B1FFE700980128D2
:102B200009D011E043F20001C4F20101086820F06D
:102B3000010008600CE043F20001C4F201010868E2
:102B400040F00100086003E000208DF80B00FFE773
:102B5000FFE79DF80B0004B07047000085B00490BB
:102B6000039101208DF80B00049820B9FFE70020A5
:102B70008DF80B0043E000200190FFE701980399D6
:102B8000884217D2FFE7FFE743F20800C4F20100D2
:102B900000888007002801D4FFE7F5E70498019931
:102BA000405C43F20C01C4F201010880019801303D
:102BB0000190E3E7FFE743F20800C4F20100008858
:102BC0008007002801D4FFE7F5E7FFE743F208009C
:102BD000C4F2010000880006002801D5FFE7F5E7F0
:102BE00043F20C00C4F201000088ADF8020043F289
:102BF0000800C4F201000088ADF80200FFE79DF86C
:102C00000B0005B07047000083B0029001208DF8E2
:102C10000700029820B9FFE700208DF8070020E0A8
:102C20000298C0780146009120B1FFE70098012882
:102C300009D011E043F60001C4F20001086820F455
:102C4000006008600CE043F60001C4F2000108686F
:102C500040F40060086003E000208DF80700FFE703
:102C6000FFE79DF8070003B07047000080B582B011
:102C7000019001208DF80300019820B9FFE70020A2
:102C80008DF803001FE041F21C01C4F20201086844
:102C900040F480400860019800F01AF88DF80300B5
:102CA000019800F0AFF88DF803000198FFF7ACFF32
:102CB0008DF8030043F60001C4F20001086840F0FB
:102CC00040000860FFE79DF8030002B080BD0000EF
:102CD00080B588B0079001208DF81B00079820B9B7
:102CE000FFE700208DF81B0088E041F21C01C4F2D0
:102CF0000201086840F480400860079800780146A7
:102D00000591E8B3FFE70598012872D1FFE740F28B
:102D10001E10C2F20000032383700221C17040F232
:102D20001412C2F2000203929370D17040F20F129B
:102D3000C2F200020492002191700121D170FDF7CE
:102D400079FF014603988DF81B10FDF773FF0146CC
:102D500004988DF81B10FDF76DFF8DF81B0043F6EE
:102D60000001C4F20001086840F4007008600868BF
:102D700040F480700860086840F0040008603CE09F
:102D800040F21E10C2F20000002383700121C170C6
:102D900040F21412C2F2000201929370D17040F21C
:102DA0000F12C2F200020292032191700221D1702F
:102DB000FDF740FF014601988DF81B10FDF73AFF23
:102DC000014602988DF81B10FDF734FF8DF81B00AB
:102DD00040F21910C2F20000FDF72CFF8DF81B0025
:102DE00043F60001C4F20001086820F00400086006
:102DF00003E000208DF81B00FFE7FFE79DF81B00B4
:102E000008B080BD84B0039001208DF80B000398BA
:102E100020B9FFE700208DF80B0040E003984078D0
:102E20000146019168B1FFE70198012812D1FFE73F
:102E300043F60001C4F20001086840F00200086097
:102E40000CE043F60001C4F20001086820F0020023
:102E5000086003E000208DF80B00FFE703988078FE
:102E60000146009120B1FFE70098012809D011E048
:102E700043F60001C4F20001086820F00100086078
:102E80000CE043F60001C4F20001086840F00100C4
:102E9000086003E000208DF80B00FFE7FFE79DF8D6
:102EA0000B0004B07047000083B002900191012034
:102EB0008DF80300029820B9FFE700208DF8030089
:102EC00021E0FFE70198E8B1FFE743F60C01C4F207
:102ED000000100200860FFE743F60800C4F200008C
:102EE0000068C00708B9FFE7F6E743F60C00C4F234
:102EF0000000008802994A1C02920870019801386B
:102F00000190DFE7FFE79DF8030003B07047000082
:102F100080B5D0B040F26420C2F2000000780028F2
:102F200000F0DD84FFE740F22021C2F20001002022
:102F3000087040F21820C2F200000078002800F06B
:102F4000C581FFE740F28000C2F2000001694B91A9
:102F500041694C91C06901F01BFB00224CF2000357
:102F6000C4F2570301F028F902464B980B464C99DE
:102F700001F04EFBD8B9FFE740F28001C2F2000138
:102F80004A910869496900220023C3F6F07300F0F2
:102F90000FFE01F057F88DF83F019DF83F0101F059
:102FA00080F802464A980B46FFF740F8FFE740F2E8
:102FB000C000C2F200004690016942696846426161
:102FC000016100224792C260826048F20003C4F2AD
:102FD00066034360026010461146FEF7EFFE0246AC
:102FE000469848924991C06901F0D2FA479A48F24E
:102FF0000003C4F2560301F0DFF8024648980B467E
:10300000499901F005FB60BBFFE740F2C000C2F246
:1030100000004590016942696846426101610022F1
:103020004492C260826048F20003C4F266034360C7
:10303000026010461146FEF7C1FE449A0023C3F613
:10304000F07300F0B5FD00F0FDFF8DF83E019DF836
:103050003E0101F026F8024645980B46FEF7E6FFD2
:10306000FFE740F24000C2F200000169429141696D
:103070004391C06901F08CFA00224CF20003C4F2C3
:10308000570301F099F8024642980B46439901F024
:10309000BFFAD8B9FFE740F24001C2F20001419106
:1030A0000869496900220023C3F6F07300F080FD2F
:1030B00000F0C8FF8DF83D019DF83D0100F0F1FFE3
:1030C000024641980B46FEF7B1FFFFE740F20000D1
:1030D000C2F200003D9001694269684642610161A7
:1030E00000223E92C260826048F20003C4F266038E
:1030F0004360026010461146FEF760FE02463D98AE
:103100003F924091C06901F043FA3E9A48F20003B1
:10311000C4F2560301F050F802463F980B4640991E
:1031200001F076FA60BBFFE740F20000C2F2000057
:103130003C900169426968464261016100223B920C
:10314000C260826048F20003C4F26603436002601A
:1031500010461146FEF732FE3B9A0023C3F6F07389
:1031600000F026FD00F06EFF8DF83C019DF83C015B
:1031700000F097FF02463C980B46FEF757FFFFE72B
:1031800040F28000C2F200000169399141693A9130
:10319000C06901F0FDF900224CF20003C4F25703AC
:1031A00001F00AF8024639980B463A9901F03EFAC6
:1031B000002840F08A80FFE740F2C000C2F2000021
:1031C0003590016942696846426101610022369288
:1031D000C260826048F20003C4F26603436002608A
:1031E00010461146FEF7EAFD0246359837923891AF
:1031F000C06901F0CDF9369A48F20003C4F25603D3
:1032000000F0DAFF024637980B46389901F00EFAC3
:1032100000285AD1FFE740F20000C2F200003190CE
:103220000169426968464261016100223292C260CE
:10323000826048F20003C4F26603436002601046F5
:103240001146FEF7BBFD0246319833923491C069B6
:1032500001F09EF9329A48F20003C4F2560300F0DE
:10326000ABFF024633980B46349901F0DFF960BB9F
:10327000FFE740F24000C2F2000001692F9141696E
:103280003091C06901F084F900224CF20003C4F2CD
:10329000570300F091FF02462F980B46309901F03A
:1032A000C5F990B9FFE740F21821C2F200010020F1
:1032B000087040F21921C2F200010120087040F2AA
:1032C0001C21C2F200010870FFE7FFE740F21C205A
:1032D000C2F200000078012840F00083FFE740F2CE
:1032E0001920C2F200000078012840F0F782FFE7C1
:1032F00040F24001C2F2000108694969002200233E
:10330000C3F6F07301F08BF9D8B9FFE740F2400142
:10331000C2F200012E910869496900220023CBF610
:10332000F07300F045FC00F08DFE8DF83B019DF838
:103330003B0100F0B6FE02462E980B46FEF776FEE5
:10334000FFE740F28001C2F20001086949690022EA
:103350000023C3F6F07301F062F9D8B9FFE740F239
:103360008001C2F200012D91086949690022002301
:10337000CBF6F07300F01CFC00F064FE8DF83A010F
:103380009DF83A0100F08DFE02462D980B46FEF79F
:103390004DFEFFE740F2C000C2F200000169426941
:1033A00068464261016100222C92C260826048F24C
:1033B0000003C4F266034360026010461146FEF744
:1033C000FDFC2C9B1A4601F02AF960BBFFE740F296
:1033D000C000C2F200002B90016942696846426158
:1033E000016100222A92C260826048F20003C4F2A6
:1033F00066034360026010461146FEF7DFFC2A9A1E
:103400000023CBF6F07300F0D3FB00F01BFE8DF829
:1034100039019DF8390100F044FE02462B980B4615
:10342000FEF704FEFFE740F20000C2F2000001696F
:10343000426968464261016100222992C26082604D
:1034400048F20003C4F2660343600260104611466E
:10345000FEF7B4FC299B1A4601F0E1F860BBFFE7D8
:1034600040F20000C2F200002890016942696846FB
:103470004261016100222792C260826048F200032B
:10348000C4F266034360026010461146FEF796FCE4
:10349000279A0023CBF6F07300F08AFB00F0D2FDF0
:1034A0008DF838019DF8380100F0FBFD02462898A0
:1034B0000B46FEF7BBFDFFE740F28001C2F20001C0
:1034C0000869496900231A4601F08DF800284DD09B
:1034D000FFE740F2C000C2F200000169426968469D
:1034E0004261016100222692C260826048F20003BC
:1034F000C4F266034360026010461146FEF75EFCAC
:10350000269B1A4601F06FF880B3FFE740F20000F7
:10351000C2F200000169426968464261016100220D
:103520002592C260826048F20003C4F266034360E1
:10353000026010461146FEF741FC259B1A4601F039
:1035400052F898B1FFE740F24001C2F20001086969
:10355000496900231A4601F046F838B1FFE740F206
:103560001921C2F2000100200870FFE740F2E000DC
:10357000C2F200000169239141692491C06901F000
:1035800007F8002244F20003C4F25A0300F014FECC
:10359000024623980B46249901F03AF8D8B9FFE780
:1035A00040F2E001C2F2000122910869496900225B
:1035B0000023C3F6F07300F0FBFA00F043FD8DF832
:1035C00037019DF8370100F06CFD024622980B464A
:1035D000FEF72CFDFFE740F2A000C2F200001E90B3
:1035E0000169426968464261016100221F92C2601E
:1035F000826048F20003C4F2660343600260104632
:103600001146FEF7DBFB02461E9820922191C0690D
:1036100000F0BEFF1F9A44F20003C4F25A0300F008
:10362000CBFD024620980B46219900F0F1FF60BBCC
:10363000FFE740F2A000C2F200001D90016942695C
:1036400068464261016100221C92C260826048F2B9
:103650000003C4F266034360026010461146FEF7A1
:10366000ADFB1C9A0023C3F6F07300F0A1FA00F042
:10367000E9FC8DF836019DF8360100F012FD024696
:103680001D980B46FEF7D2FCFFE740F22000C2F285
:10369000000001691A9141691B91C06900F078FF2F
:1036A000002244F20003C4F25A0300F085FD0246F2
:1036B0001A980B461B9900F0ABFFD8B9FFE740F210
:1036C0002001C2F200011991086949690022002312
:1036D000C3F6F07300F06CFA00F0B4FC8DF835011D
:1036E0009DF8350100F0DDFC024619980B46FEF707
:1036F0009DFCFFE740F26000C2F2000015900169F6
:10370000426968464261016100221692C26082608D
:1037100048F20003C4F2660343600260104611469B
:10372000FEF74CFB0246159817921891C06900F0FD
:103730002FFF169A44F20003C4F25A0300F03CFD36
:10374000024617980B46189900F062FF60BBFFE72E
:1037500040F26000C2F200001490016942696846BC
:103760004261016100221392C260826048F200034C
:10377000C4F266034360026010461146FEF71EFB6A
:10378000139A0023C3F6F07300F012FA00F05AFC0B
:103790008DF834019DF8340100F083FC0246149842
:1037A0000B46FEF743FCFFE740F2E000C2F20000E8
:1037B0000169119141691291C06900F0E9FE00228E
:1037C00044F20003C4F25A0300F0F6FC02461198DA
:1037D0000B46129900F02AFF00287ED1FFE740F245
:1037E000A000C2F200000D90016942696846426182
:1037F000016100220E92C260826048F20003C4F2AE
:1038000066034360026010461146FEF7D7FA02468F
:103810000D980F921091C06900F0BAFE0E9A44F212
:103820000003C4F25A0300F0C7FC02460F980B468F
:10383000109900F0FBFE00284FD1FFE740F2600036
:10384000C2F2000009900169426968464261016163
:1038500000220A92C260826048F20003C4F266034A
:103860004360026010461146FEF7A8FA0246099826
:103870000B920C91C06900F08BFE0A9A44F200038F
:10388000C4F25A0300F098FC02460B980B460C99C0
:1038900000F0CCFE08BBFFE740F22000C2F20000BF
:1038A0000169079141690891C06900F071FE002229
:1038B00044F20003C4F25A0300F07EFC024607986B
:1038C0000B46089900F0B2FE38B9FFE740F21C2120
:1038D000C2F2000100200870FFE7FFE7FFE750B0E9
:1038E00080BD000082B0019001208DF80300019896
:1038F00020B9FFE700208DF8030007E00198006879
:1039000040F27821C2F200010860FFE79DF8030051
:1039100002B0704780B584B0039001208DF80B0091
:10392000039820B9FFE700208DF80B002CE041F24E
:103930001801C4F20201086840F40060086042F611
:103940000041C4F201010191086820F00100086003
:103950000398FEF709FD8DF80B000398FFF7C2FFEF
:103960008DF80B00FCF7C2FE01998DF80B0042F6B2
:103970001442C4F20102106840F0010010600868AF
:1039800040F001000860FFE79DF80B0004B080BD27
:1039900082B0019001208DF80300019820B9FFE763
:1039A00000208DF8030000E0FFE79DF8030002B05F
:1039B0007047000080B584B0039001208DF80B00A3
:1039C000039820B9FFE700208DF80B002EE041F2AC
:1039D0001C01C4F20201086840F0010008604FF0C9
:1039E00080410191086820F0010008600398FEF70B
:1039F00039FA8DF80B000398FEF718FD8DF80B00CF
:103A00000398FFF7C5FF8DF80B00FCF787FE0199BF
:103A10008DF80B001422C4F20002106840F001007F
:103A20001060086840F001000860FFE79DF80B0097
:103A300004B080BD84B00390029101208DF807008E
:103A40000398007901380146009103281CD8009999
:103A5000DFE801F002080E1402983421C4F20001DC
:103A6000086015E002983821C4F2000108600FE0F8
:103A700002983C21C4F20001086009E0029840214C
:103A8000C4F20001086003E000208DF80700FFE7A2
:103A90009DF8070004B0704782B0019001208DF8B6
:103AA0000300019820B9FFE700208DF8030000E033
:103AB000FFE79DF8030002B07047000080B584B0B6
:103AC000039001208DF80B00039820B9FFE7002038
:103AD0008DF80B0031E041F21C01C4F202010868CC
:103AE00040F00400086040F60001C4F200010191BA
:103AF000086820F0010008600398FEF7F5F98DF8DA
:103B00000B000398FEF788FD8DF80B000398FFF774
:103B1000C3FF8DF80B00FCF719FE01998DF80B001F
:103B200040F61402C4F20002106840F00100106078
:103B3000086840F001000860FFE79DF80B0004B042
:103B400080BD000084B00390029101208DF8070031
:103B500003980079013801460091032820D8009984
:103B6000DFE801F002091017029840F63401C4F2B0
:103B70000001086018E0029840F63801C4F2000124
:103B8000086011E0029840F63C01C4F200010860B0
:103B90000AE0029840F64001C4F20001086003E028
:103BA00000208DF80700FFE79DF8070004B070477C
:103BB00010B591EA030F48BF83F0004300F102847F
:103BC000841A71EB030C05D2121943EB0C03001B92
:103BD00061EB0C014FEA1154A4EB135CDFF81CE11C
:103BE0001EEA430F18BF9EEA445F00F0748021EA8A
:103BF000045123EA0E0343F48013DCF1200E32D388
:103C000022FA0CFE10EB0E0023FA0CFE41EB0E0123
:103C1000CCF1200E03FA0EFE10EB0E00CCF1200EBC
:103C200051F10001B1F5801F32D201EB045112FABB
:103C30000EF2BDE8104058BF7047401C38BF5FEA25
:103C4000420218BF7047002814BF20F0010041F164
:103C500000014FEA410313F5001F38BF7047A1F17F
:103C6000C04100F0A1BB012A43EB0302ACF1200CE0
:103C7000DCF11F0E32BF4FF0000E23FA0CF310EBF5
:103C8000030041EB0451B4EB115FD0D0A1EB045120
:103C900001F58011490801EB04515FEA30000ED3B1
:103CA00050F1000038BF12FA0EFE08D1BDE81040F6
:103CB000C9E7401C38BF5FEA4202CAD1C3E7BDE88A
:103CC00010404FEA410313F5001F38BF7047A1F1C0
:103CD000C04100F069BB9EEA445F08D011EA5E0F64
:103CE000BDE8104004BF01F0004100207047BDE86E
:103CF000104070B500F00AFB64FBBE3E0000E0FF20
:103D0000491058BFC1F140415B1058BFC3F1404357
:103D10008B42EFF3008070472DE9C04130B4DFF8EB
:103D2000A4C23CEA111418BF3CEA131400F0ED8061
:103D30001CEA111481EA030544EAD57418BF1CEA91
:103D4000131500F0C880A4EB050404F17F7404F59A
:103D500000344FF0004545EAC12145EAC32341EA5A
:103D6000505143EA52534FEAC0204FEAC2229942CF
:103D700008BF904200F09D804FEA13650FF2441691
:103D8000765D4FEA134506FB05F7C7F1807706FB22
:103D900007F74FEAD737A7FB03687642A7FB06CEA3
:103DA000C8F5803838BFA8F1010807FB08E6A6FB74
:103DB000028C4FF0000EE6FB03CEDCF1000CCEF1DE
:103DC000004E38BFAEF1010EA6FB0C584FF00007B5
:103DD000E6FB0E87A1FB08C6A0FB07CE16EB0E067E
:103DE0004FF0000545F10005E1FB076515F1E04ED8
:103DF0007EBFA4F580345FEA46066D4116F1800768
:103E000045F100054FEA172747EA05674FEA1525F0
:103E10004FEA0666A6F1DE46B6F1805F20D9384645
:103E200005EBC47124F0010C01EB0C11BCF1FE6F29
:103E300002D8F0BCBDE8008124425CBF01F5801EC1
:103E40009EEAC47F02D4F0BCBDE80081244200F1A8
:103E50003980A1F1C041F0BCBDE8004100F0A4BA36
:103E60004FEAD02040EA41504FEAD1214FEAD22216
:103E700042EA43524FEAD323A7FB028607FB0366BD
:103E800005FB02661EEA0E0F58BFA6EB0056B6EB06
:103E900000564FEA520E4EEAC37E18EB0E0E56EB5A
:103EA000530EBCD518EB02085E417F1C55F100058E
:103EB000B5E74FF480154FF000074FF000064FF0C4
:103EC0000008ACE701F1C04101F000414FF00000F3
:103ED000F0BCBDE800810CEA131511EA0C1F00D0FC
:103EE0000CE013EA0C1F00F026804FF0000081EA7E
:103EF000030101F00041F0BCBDE80081F0BCBDE869
:103F0000004181EA030100F04FBAF0BCBDE8004176
:103F100070B500F0FBF900BF097EFC3E00F007B869
:103F20004FF0000081EA030101F00041704781EA8F
:103F3000030100F039BAF0BCBDE8004122494FF05E
:103F400000007047FFFDFBF9F7F5F4F2F0EEEDEB42
:103F5000E9E8E6E4E3E1E0DEDDDBDAD8D7D5D4D387
:103F6000D1D0CFCDCCCBCAC8C7C6C5C4C2C1C0BFD3
:103F7000BEBDBCBBBAB9B8B7B6B5B4B3B2B1B0AFD9
:103F8000AEADACABAAA9A8A8A7A6A5A4A3A3A2A1BD
:103F9000A09F9F9E9D9C9C9B9A9999989797969578
:103FA00095949393929191908F8F8E8E8D8C8C8B14
:103FB0008B8A89898888878786858584848383829C
:103FC000828181800000FF070000F87F51EA030C26
:103FD00017D41CF5801F58BFBCF5801F00F1068068
:103FE000994218BF704708BF9042704707D711F534
:103FF000801F58BF13F5801F19D49942704789421A
:1040000070471CF5801F08D5BCF5801FF7D58B4283
:1040100018BF704708BF824270474FF4001C1CEB6A
:10402000410F38BF1CEB430F01D28B42704770B574
:1040300000F06CF9922449004FF000514FF080538A
:10404000FFF75EBE4FEA41034FEA5353A3F5806387
:10405000D3F11E03C8BFD3F1210C0CDD4FF0004299
:1040600042EAC12242EA505232FA03FC8CEAE17C75
:10407000ACEBE1707047102BC4BF0020704703F514
:10408000787CBCF1FF3F04D06FF0004282EA21004F
:10409000704770B500F03AF94992248000207047CB
:1040A000F2E7B0FA80F310FA03F10AD0C3F11D036E
:1040B00003F580634FEA03524FEA415002EBD121EE
:1040C00070474FF00000704751EA030C17D41CF5FD
:1040D000801F58BFBCF5801F00F10680994218BFB1
:1040E000704708BF9042704707D711F5801F58BF2F
:1040F00013F5801F19D499427047894270471CF507
:10410000801F08D5BCF5801FF7D58B4218BF7047BC
:1041100008BF824270474FF4001C1CEB410F38BFB0
:104120001CEB430F01D28B42704770B500F0EEF8E4
:10413000922449004FF080514FF00053FFF7E0BD4B
:1041400051EA030C17D41CF5801F58BFBCF5801F23
:1041500000F10680994218BF704708BF904270472F
:1041600007D711F5801F58BF13F5801F19D4994246
:104170007047894270471CF5801F08D5BCF5801F29
:10418000F7D58B4218BF704708BF824270474FF483
:10419000001C1CEB410F38BF1CEB430F01D28B42BC
:1041A000704770B500F0B2F8922449004FF000510A
:1041B0004FF08053FFF7A4BD70B5DFF848C11CEA8B
:1041C000111E1EBF1CEA13159EEA0C0F95EA0C0F78
:1041D00000F06F8081EA03044EEAD47EAE4421EA07
:1041E0004C1123EA4C1341F4801143F48013AEF1D7
:1041F0007F7EA1FB024CA0FB0365361955EB0C0535
:10420000A1FB034C4CF10003A0FB021C16EB0C06B7
:10421000654153F10003094218BF46F0010613F44B
:10422000007F0BD14FEA03314FEA053041EA1551C7
:1042300040EA165034036FF003020AE04FEAC3214C
:104240004FEAC52041EA555140EA5650F4026FF05A
:10425000020202EB2E4201EB025585EACE710AD032
:104260005FEA440C18BF24F0004450F1000041F113
:10427000000120EAD47040F2FE7C624500D270BD9D
:10428000A84214BF4FF080444FF04044002E08BFB6
:104290000024BEF1806FA8BFA1F1C041BDE870400D
:1042A00080F2828001F1C04101F000414FF0000036
:1042B00070470CEA13159EEA0C0F18BF95EA0C0F15
:1042C00006D081EA030E4FF000000EF0004170BDF1
:1042D00000F01CF88900013E00F007B800F009B8B2
:1042E0004FEA430C5FEA5C5C08D081EA030100F00E
:1042F0005BB84FEA410C5FEA5C5CF6D102494FF0D3
:10430000000070470000FF070000F87F0EF1020E6A
:104310002EF0030E5EF8046B364205D4012A43EBFF
:10432000030515F5001F12D8012841EB010C1CF5FF
:10433000001F0CD80ED14FEAD17C0CEB4C0C0CF1C9
:10434000020C15F5001F08BF4CEBD37C04E04FF0C6
:10435000080C01E04FEAD37C0CEB4C0526FA05F67D
:1043600006F00706B6F1040C06D20EEB860CBDE88B
:1043700070404CF0010C6047DFE80CF0090B0202C2
:104380004FF00041A1F500214FF0000070BD19462B
:104390001046012851EB010418BFD4F5001484BF66
:1043A000002001F0004170BD0808A0F500114FEA9F
:1043B0003101704710B591EA030F48BF83F0004305
:1043C0003FF5FEAB841A71EB030C07D28CF0004C66
:1043D000121943EB0C03001B61EB0C014FEA115463
:1043E000A4EB135CDFF8A4E11EEA430F18BF9EEABA
:1043F000445F00F0B48021EA045123EA6E03524284
:10440000C3EB6E0338BF5B1EDCF1200E25D322FA0E
:104410000CFE10EB0E0043FA0CFE41EB0E01CCF14A
:10442000200E03FA0EFE10EB0E00CCF1200E51F11F
:10443000000129D401EB045112FA0EF2BDE810403C
:1044400058BF7047401C1CBFB2F1004F7047002896
:104450000CBF491C20F00100704712EB020E43EB29
:10446000030218BF4FF0010E4EEA4202ACF1200CDD
:10447000DCF11E0E56D943FA0CFE10EB0E00CCF107
:104480001E0E51F1FF31D5D50EF1010E12FA0EFEBE
:10449000404141EB010101EB445C5FEA5C5C10D9F7
:1044A00001EB045110EBDE7038BFBEF1004FBDE8E8
:1044B000104018BF704700280CBF491C20F00100B5
:1044C000704734D24FEAD42C24F4006411F5001163
:1044D0001BD0B1FA81F20B3AA41AA41ED2F1200328
:1044E000914030FA03F31943904001EBCC7101EB9A
:1044F0000451002CBDE81040A8BF704701F1C04135
:1045000001F000414FF000007047B0FA80F310FA5C
:1045100003F102D1BDE810407047E41A173C48058A
:10452000C90AE2E701EB0451BDE8104070474910A9
:104530004FEA300001EB0451BDE8104002E04FF0BB
:10454000000170474A0008BF0042F8D0B2F5001FD2
:1045500028BF704701F000414FF0000070479EEA0D
:10456000445F07D011EA5E0FBDE8104004BF002190
:1045700000207047BDE8104070B5FFF7C7FE00BFD0
:1045800040DFF63E104683F0004170470000E0FF38
:1045900043004FEAD30C4FEA3C0C43401FBF400797
:1045A0000CF1605113F0FE4F70471CF0006F03D107
:1045B0000CF00041002070470CF0004343EA5070BB
:1045C00040EACC0010B500F038F800BF00000092BF
:1045D0004FEA0001FFF7E8BE4FF00041A1F50021CE
:1045E0004FF00000704710B5FFF7F0FC0CBF012042
:1045F000002010BD10B5FFF7E9FC14BF012000201A
:1046000010BD10B5FFF760FD8CBF0120002010BD6C
:1046100010B5FFF759FD2CBF0120002010BD10B5CB
:10462000FFF78EFD94BF0120002010BD10B5FFF7ED
:1046300087FD34BF0120002010BD0EF1020E2EF0C8
:10464000030E5EF8044B244204D44FEA4102B2F157
:104650007F4F11D84FEA4003B3F17F4F0CD80ED1F2
:104660004FEAD07C0CEB4C0C0CF1020CB2F17F4FFA
:1046700008BF4CEBD17C04E04FF0080C01E04FEA9E
:10468000D17C0CEB4C0324FA03F404F00704B4F1DE
:10469000040C06D20EEB840CBDE810404CF0010C6B
:1046A0006047DFE80CF0070802024FF00040A0F579
:1046B000800010BD0846420018BFD2F1807288BF4A
:1046C00000F0004010BD0000E84600080000002097
:1046D000B40100005001000858470008B80100204C
:1046E00018070000B00100080313020124C0524063
:1046F00029190415C03F021A2E20210E129A99D9A9
:104700003F0221394039090C163F0203403A01406B
:104710000A1D04400A1E0440091DC00A1D04C011E0
:104720004206420732052B010E052A0F051A0C42DC
:1047300033010D1B020D842B020E053A0F8E9A4891
:10474000042966120589665AE8B0A997A9E3A9CF9A
:08475000A99C092A30000000B9
:04000005080001F5F9
:00000001FF
