:020000040800F2
:10000000A8060020B5010008BD010008BF010008D6
:10001000C1010008C3010008C5010008000000007C
:10002000000000000000000000000000C701000800
:10003000C901000800000000CB010008CD01000844
:10004000CF010008CF010008CF010008CF01000850
:10005000CF010008CF010008CF010008CF01000840
:10006000CF010008CF010008CF010008CF01000830
:10007000CF010008CF010008CF010008CF01000820
:10008000CF010008CF010008CF010008CF01000810
:10009000CF010008CF010008CF010008CF01000800
:1000A000CF01000891040008CF010008CF0100082B
:1000B000E50400083505000889050008CF0100089F
:1000C000CF010008CF010008CF010008CF010008D0
:1000D000CF010008CF010008CF010008CF010008C0
:1000E000CF010008CF010008CF01000800F002F89E
:1000F00000F050F814A696E8000CB244B344DA4578
:1001000001D100F047F8BAE80F000FA696E83000DA
:10011000A5EB040504EB0607AAEB0704A7F101070A
:100120004FEA15154FEA3414A4F10104AC4201D38F
:1001300000F030F813F0010F18BFFB1A43F0010371
:1001400000F001F8DBE71847B8180000D8180000E5
:10015000103A24BF78C878C1FAD8520724BF30C8F3
:1001600030C144BF04680C60704700007047000055
:100170000023002400250026103A28BF78C1FBD8B0
:10018000520728BF30C148BF0B6070471FB51FBD65
:1001900010B510BD00F031F81146FFF7F7FF01F080
:1001A000C1FA00F04FF803B4FFF7F2FF03BC00F010
:1001B00057F800000948804709480047FEE7FEE776
:1001C000FEE7FEE7FEE7FEE7FEE7FEE7FEE7FEE707
:1001D00004480549054A064B7047000029040008F9
:1001E000ED000008A8000020A8060020A8020020BA
:1001F000A8020020704770477047754600F02CF841
:10020000AE4605006946534620F00700854618B003
:1002100020B5FFF7DDFFBDE820404FF000064FF0AE
:1002200000074FF000084FF0000BAC46ACE8C009E7
:10023000ACE8C009ACE8C009ACE8C00921F007018E
:100240008D46704710B50446AFF300802046BDE8E8
:100250001040FFF7A8BF00000048704718000020BA
:1002600001491820ABBEFEE72600020070470000DF
:1002700080B582B001208DF8070000F0F3F94EF24E
:100280000011CEF20001086840F0804008609DF83F
:10029000070002B080BD000041F21801C4F2020163
:1002A000086840F0010008607047000041F2180142
:1002B000C4F20201086840F00400086070470000C2
:1002C00041F21801C4F20201086840F00800086019
:1002D0007047000041F21801C4F20201086840F0C2
:1002E000100008607047000041F21C01C4F20201D6
:1002F000086840F0040008607047000080B500F016
:1003000001F880BD84B000200390029041F200010A
:10031000C4F20201086840F480300860FFE741F24F
:100320000000C4F20200006800F40030029003985C
:1003300001300390FFE702990020019039B9FFE7EF
:100340000398B0F5A06018BF01200190FFE7019865
:10035000C0070028E3D1FFE741F20000C4F2020029
:1003600000688003002803D5FFE70120029002E027
:1003700000200290FFE70298012851D1FFE742F2E6
:100380000001C4F20201086840F01000086008682B
:1003900020F007000860086840F00200086041F2A1
:1003A0000401C4F20201009108680860086808604E
:1003B000086840F480600860086820F47C100860D9
:1003C000086840F4E810086041F20001C4F202013C
:1003D000086840F080700860FFE741F20000C4F256
:1003E000020000688001002801D4FFE7F5E741F230
:1003F0000401C4F20201086820F0030008600868E4
:1004000040F002000860FFE741F20400C4F202007D
:10041000006800F00C00082801D0FFE7F4E700E0D6
:10042000FFE704B07047000080B541F20002C4F25B
:100430000202106840F00100106041F20401C4F2B1
:10044000020108680023CFF6FF0318400860106817
:100450004FF6FF73CFF6F66318401060106820F473
:1004600080201060086820F4FE00086041F2080156
:10047000C4F202014FF41F000860FFF73FFF4EF681
:100480000851CEF200014FF00060086080BD00000E
:1004900080B54EF28021CEF20001086840F0007075
:1004A000086042F61040C4F201000088C007B8B1ED
:1004B000FFE700F093F840F29401C2F2000101203E
:1004C000086040F27800C2F20000006838B1FFE72F
:1004D00040F27800C2F2000000688047FFE7FFE7C3
:1004E00080BD000080B54EF28021CEF20001086888
:1004F00040F0805008601020C4F200000088C0075F
:10050000B8B1FFE700F074F840F28801C2F20001D0
:100510000120086040F27C00C2F20000006838B19F
:10052000FFE740F27C00C2F2000000688047FFE76E
:10053000FFE780BD80B54EF28021CEF20001086851
:1005400040F00050086040F21040C4F20000008803
:10055000C007B8B1FFE700F053F840F28C01C2F2D7
:1005600000010120086040F28000C2F20000006833
:1005700038B1FFE740F28000C2F200000068804717
:10058000FFE7FFE780BD000080B54EF28021CEF28C
:100590000001086840F08040086040F61000C4F296
:1005A00000000088C007B8B1FFE700F033F840F260
:1005B0009001C2F200010120086040F28400C2F202
:1005C0000000006838B1FFE740F28400C2F200008A
:1005D00000688047FFE7FFE780BD000042F610415A
:1005E000C4F20101088820F0010008807047000073
:1005F0001021C4F20001088820F001000880704733
:1006000040F21041C4F20001088820F00100088087
:100610007047000040F61001C4F20001088820F085
:10062000010008807047000040F60001C4F200019C
:10063000088820F0010008807047000040F60001A3
:10064000C4F20001088840F00100088070470000F3
:1006500040F61401C4F20001088840F0010008804F
:100660007047000040F60C01C4F20001088840F019
:10067000010008807047000080B582B00190012021
:100680008DF80300019820B9FFE700208DF80300E2
:100690000DE001984079022805D0FFE701984079E4
:1006A000032803D1FFE7FFF7F7FDFFE7FFE79DF81A
:1006B000030002B080BD000080B584B0039001202B
:1006C0008DF80B00039820B9FFE700208DF80B0090
:1006D0001BE0039800780146019140B1FFE70198C3
:1006E000012807D0FFE70198022806D008E0FFF7AD
:1006F000DDFD09E0FFF7E4FD06E0FFF7EBFD03E0B9
:1007000000208DF80B00FFE7FFE79DF80B0004B019
:1007100080BD000081B0ADF8020000208DF801001E
:10072000FFE7BDF8020058B1FFE7BDF8020040083E
:10073000ADF802009DF8010001308DF80100F0E7EE
:100740009DF801000138C0B201B0704780B584B097
:10075000039001208DF80B00039820B9FFE70020DB
:100760008DF80B004EE00398FFF7A6FF8DF80B0005
:100770000398FFF781FF8DF80B009DF80B0030B157
:10078000FFE7039800F0B4FC8DF80B00FFE79DF83D
:100790000B0030B1FFE7039800F0D0F88DF80B00A4
:1007A000FFE7039800780146019140B1FFE7019807
:1007B00001280ED0FFE70198022814D01DE003980D
:1007C000428840F60C01C4F20101086890430860B9
:1007D00017E00398428840F60C41C4F20101086812
:1007E000904308600DE00398428841F20C01C4F286
:1007F000010108689043086003E000208DF80B00B9
:10080000FFE7FFE79DF80B0004B080BD86B00590C0
:100810008DF8131001208DF81200059820B9FFE71C
:1008200000208DF8120084E00598007801460391BD
:1008300040B1FFE70398012827D0FFE7039802287B
:1008400046D068E09DF813000146029120B1FFE711
:10085000029801280AD013E00598428840F60C015E
:10086000C4F201010868904308600DE005984288D1
:1008700040F60C01C4F2010108681043086003E06F
:1008800000208DF81200FFE749E09DF813000146B3
:10089000019120B1FFE7019801280AD013E00598E3
:1008A000428840F60C41C4F2010108689043086098
:1008B0000DE00598428840F60C41C4F20101086839
:1008C0001043086003E000208DF81200FFE726E0E7
:1008D0009DF813000146009120B1FFE70098012820
:1008E0000AD013E00598428841F20C01C4F20101DC
:1008F0000868904308600DE00598428841F20C01B9
:10090000C4F2010108681043086003E000208DF87C
:100910001200FFE703E000208DF81200FFE79DF8CA
:10092000120028B1FFE79DF8130005998871FFE7D1
:10093000FFE79DF8120006B07047000080B584B054
:10094000039001208DF80B00039820B9FFE70020E9
:100950008DF80B00C8E300208DF80A00039840884A
:10096000FFF7D8FE8DF80A0003984088802800F32E
:10097000C081FFE7039800780146019150B1FFE77D
:100980000198012800F09480FFE70198022800F008
:100990001D81A9E103984079E0B9FFE70398407908
:1009A000C0B9FFE79DF80A008000811C012000FA11
:1009B00001F340F60001C4F201010A689A430A609B
:1009C0009DF80A209200033200FA02F20868904370
:1009D00008606CE00398407901281DD1FFE7039877
:1009E0004079012818D1FFE79DF80A008000811C9A
:1009F000012000FA01F340F60001C4F201010A6887
:100A00001A430A609DF80A209200033200FA02F2AB
:100A100008689043086049E00398407902281DD196
:100A2000FFE703984079022818D1FFE79DF80A00F4
:100A30008000811C012000FA01F340F60001C4F29D
:100A400001010A689A430A609DF80A209200033265
:100A500000FA02F208681043086026E00398407923
:100A600003281DD1FFE703984079032818D1FFE739
:100A70009DF80A008000811C012000FA01F340F675
:100A80000001C4F201010A681A430A609DF80A20B5
:100A90009200033200FA02F208681043086003E093
:100AA00000208DF80B00FFE7FFE7FFE7FFE71FE1FE
:100AB00003984079E0B9FFE703984079C0B9FFE7B0
:100AC0009DF80A008000811C012000FA01F340F625
:100AD0000041C4F201010A689A430A609DF80A20A5
:100AE0009200033200FA02F20868904308606CE05A
:100AF0000398407901281DD1FFE703984079012828
:100B000018D1FFE79DF80A008000811C012000FA3F
:100B100001F340F60041C4F201010A681A430A6079
:100B20009DF80A209200033200FA02F2086890430E
:100B3000086049E00398407902281DD1FFE7039837
:100B40004079022818D1FFE79DF80A008000811C37
:100B5000012000FA01F340F60041C4F201010A68E5
:100B60009A430A609DF80A209200033200FA02F2CA
:100B700008681043086026E00398407903281DD1D7
:100B8000FFE703984079032818D1FFE79DF80A0092
:100B90008000811C012000FA01F340F60041C4F2FC
:100BA00001010A681A430A609DF80A209200033284
:100BB00000FA02F208681043086003E000208DF894
:100BC0000B00FFE7FFE7FFE7FFE791E003984079BD
:100BD000E0B9FFE703984079C0B9FFE79DF80A0044
:100BE0008000811C012000FA01F341F20001C4F2EF
:100BF00001010A689A430A609DF80A2092000332B4
:100C000000FA02F20868904308606CE003984079AB
:100C100001281DD1FFE703984079012818D1FFE78B
:100C20009DF80A008000811C012000FA01F341F2C6
:100C30000001C4F201010A681A430A609DF80A2003
:100C40009200033200FA02F208689043086049E01B
:100C50000398407902281DD1FFE7039840790228C4
:100C600018D1FFE79DF80A008000811C012000FADE
:100C700001F341F20001C4F201010A689A430A60DB
:100C80009DF80A209200033200FA02F2086810432D
:100C9000086026E00398407903281DD1FFE70398F8
:100CA0004079032818D1FFE79DF80A008000811CD5
:100CB000012000FA01F341F20001C4F201010A68C7
:100CC0001A430A609DF80A209200033200FA02F2E9
:100CD00008681043086003E000208DF80B00FFE770
:100CE000FFE7FFE7FFE703E000208DF80B00FFE7D9
:100CF000F9E1039840888128C0F2F081FFE703986A
:100D000000780146009150B1FFE70098012800F0FB
:100D1000A480FFE70098022800F03D81D9E1039804
:100D2000407900BBFFE703984079E0B9FFE79DF801
:100D30000A106FF01D0000EB8101012000FA01F3A1
:100D400040F60401C4F201010A689A430A609DF862
:100D50000A306FF01C0202EB830200FA02F208680C
:100D60009043086078E003984079012821D1FFE79B
:100D70000398407901281CD1FFE79DF80A106FF015
:100D80001D0000EB8101012000FA01F340F604018F
:100D9000C4F201010A681A430A609DF80A306FF034
:100DA0001C0202EB830200FA02F20868904308601A
:100DB00051E003984079022821D1FFE70398407958
:100DC00002281CD1FFE79DF80A106FF01D0000EB10
:100DD0008101012000FA01F340F60401C4F201018F
:100DE0000A689A430A609DF80A306FF01C0202EB11
:100DF000830200FA02F20868104308602AE00398B0
:100E00004079032821D1FFE70398407903281CD1BA
:100E1000FFE79DF80A106FF01D0000EB8101012033
:100E200000FA01F340F60401C4F201010A681A4312
:100E30000A609DF80A306FF01C0202EB830200FA90
:100E400002F208681043086003E000208DF80B00F0
:100E5000FFE7FFE7FFE7FFE73FE10398407900BBCB
:100E6000FFE703984079E0B9FFE79DF80A106FF0BB
:100E70001D0000EB8101012000FA01F340F604415E
:100E8000C4F201010A689A430A609DF80A306FF0C3
:100E90001C0202EB830200FA02F208689043086029
:100EA00078E003984079012821D1FFE70398407941
:100EB00001281CD1FFE79DF80A106FF01D0000EB20
:100EC0008101012000FA01F340F60441C4F201015E
:100ED0000A681A430A609DF80A306FF01C0202EBA0
:100EE000830200FA02F208689043086051E0039818
:100EF0004079022821D1FFE70398407902281CD1CC
:100F0000FFE79DF80A106FF01D0000EB8101012042
:100F100000FA01F340F60441C4F201010A689A4361
:100F20000A609DF80A306FF01C0202EB830200FA9F
:100F300002F20868104308602AE003984079032809
:100F400021D1FFE70398407903281CD1FFE79DF8E2
:100F50000A106FF01D0000EB8101012000FA01F37F
:100F600040F60441C4F201010A681A430A609DF880
:100F70000A306FF01C0202EB830200FA02F20868EA
:100F80001043086003E000208DF80B00FFE7FFE747
:100F9000FFE7FFE7A1E00398407900BBFFE7039874
:100FA0004079E0B9FFE79DF80A106FF01D0000EBF3
:100FB0008101012000FA01F341F20401C4F20101B0
:100FC0000A689A430A609DF80A306FF01C0202EB2F
:100FD000830200FA02F208689043086078E0039800
:100FE0004079012821D1FFE70398407901281CD1DD
:100FF000FFE79DF80A106FF01D0000EB8101012052
:1010000000FA01F341F20401C4F201010A681A4333
:101010000A609DF80A306FF01C0202EB830200FAAE
:1010200002F208689043086051E003984079022872
:1010300021D1FFE70398407902281CD1FFE79DF8F2
:101040000A106FF01D0000EB8101012000FA01F38E
:1010500041F20401C4F201010A689A430A609DF852
:101060000A306FF01C0202EB830200FA02F20868F9
:10107000104308602AE003984079032821D1FFE754
:101080000398407903281CD1FFE79DF80A106FF000
:101090001D0000EB8101012000FA01F341F204017F
:1010A000C4F201010A681A430A609DF80A306FF021
:1010B0001C0202EB830200FA02F208681043086087
:1010C00003E000208DF80B00FFE7FFE7FFE7FFE7F5
:1010D00003E000208DF80B00FFE703E000208DF80F
:1010E0000B00FFE7FFE7FFE79DF80B0004B080BDB2
:1010F00080B58AB0099001208DF82300099820B9A5
:10110000FFE700208DF8230007E300208DF8220080
:1011100009984088FFF7FEFA8DF822000998408868
:10112000802800F35981FFE709980078014607916C
:1011300048B1FFE70798012871D0FFE70798022818
:1011400000F0D98043E1099800790146069103280F
:1011500060D80699DFE801F0021930479DF82200B7
:101160008100012000FA01F340F60001C4F2010100
:101170000A689A430A609DF822209200013200FA20
:1011800002F208689043086048E09DF82200810060
:10119000012000FA01F340F60001C4F201010A68DF
:1011A0001A430A609DF822209200013200FA02F2EE
:1011B00008689043086031E09DF82200810001201A
:1011C00000FA01F340F60001C4F201010A689A43F3
:1011D0000A609DF822209200013200FA02F20868AB
:1011E000104308601AE09DF822008100012000FAF7
:1011F00001F340F60001C4F201010A681A430A60D3
:101200009DF822209200013200FA02F20868104391
:10121000086003E000208DF82300FFE7DBE0099879
:10122000007901460591032860D80599DFE801F0AF
:10123000021930479DF822008100012000FA01F3D5
:1012400040F60041C4F201010A689A430A609DF821
:1012500022209200013200FA02F2086890430860EE
:1012600048E09DF822008100012000FA01F340F6D9
:101270000041C4F201010A681A430A609DF8222065
:101280009200013200FA02F208689043086031E0EF
:101290009DF822008100012000FA01F340F6004190
:1012A000C4F201010A689A430A609DF82220920064
:1012B000013200FA02F20868104308601AE09DF853
:1012C00022008100012000FA01F340F60041C4F23F
:1012D00001010A681A430A609DF822209200013237
:1012E00000FA02F208681043086003E000208DF85D
:1012F0002300FFE76FE00998007901460491032875
:1013000060D80499DFE801F0021930479DF8220007
:101310008100012000FA01F341F20001C4F2010151
:101320000A689A430A609DF822209200013200FA6E
:1013300002F208689043086048E09DF822008100AE
:10134000012000FA01F341F20001C4F201010A6830
:101350001A430A609DF822209200013200FA02F23C
:1013600008689043086031E09DF822008100012068
:1013700000FA01F341F20001C4F201010A689A4344
:101380000A609DF822209200013200FA02F20868F9
:10139000104308601AE09DF822008100012000FA45
:1013A00001F341F20001C4F201010A681A430A6024
:1013B0009DF822209200013200FA02F208681043E0
:1013C000086003E000208DF82300FFE703E0002021
:1013D0008DF82300FFE79FE1099840888128C0F23B
:1013E0009681FFE7099800780146039150B1FFE725
:1013F0000398012800F08680FFE70398022800F098
:1014000001817FE10998007901460291032874D88F
:101410000299DFE801F0021E3A569DF822106FF0A3
:101420001F0000EB8101012000FA01F340F60401E6
:10143000C4F201010A689A430A609DF822306FF0F5
:101440001E0202EB830200FA02F208689043086071
:1014500057E09DF822106FF01F0000EB8101012082
:1014600000FA01F340F60401C4F201010A681A43CC
:101470000A609DF822306FF01E0202EB830200FA30
:1014800002F20868904308603BE09DF822106FF07C
:101490001F0000EB8101012000FA01F340F6040176
:1014A000C4F201010A689A430A609DF822306FF085
:1014B0001E0202EB830200FA02F208681043086081
:1014C0001FE09DF822106FF01F0000EB810101204A
:1014D00000FA01F340F60401C4F201010A681A435C
:1014E0000A609DF822306FF01E0202EB830200FAC0
:1014F00002F208681043086003E000208DF8230022
:10150000FFE703E10998007901460191032874D8A7
:101510000199DFE801F0021E3A569DF822106FF0A3
:101520001F0000EB8101012000FA01F340F60441A5
:10153000C4F201010A689A430A609DF822306FF0F4
:101540001E0202EB830200FA02F208689043086070
:1015500057E09DF822106FF01F0000EB8101012081
:1015600000FA01F340F60441C4F201010A681A438B
:101570000A609DF822306FF01E0202EB830200FA2F
:1015800002F20868904308603BE09DF822106FF07B
:101590001F0000EB8101012000FA01F340F6044135
:1015A000C4F201010A689A430A609DF822306FF084
:1015B0001E0202EB830200FA02F208681043086080
:1015C0001FE09DF822106FF01F0000EB8101012049
:1015D00000FA01F340F60441C4F201010A681A431B
:1015E0000A609DF822306FF01E0202EB830200FABF
:1015F00002F208681043086003E000208DF8230021
:10160000FFE783E00998007901460091032874D828
:101610000099DFE801F0021E3A569DF822106FF0A3
:101620001F0000EB8101012000FA01F341F20401E7
:10163000C4F201010A689A430A609DF822306FF0F3
:101640001E0202EB830200FA02F20868904308606F
:1016500057E09DF822106FF01F0000EB8101012080
:1016600000FA01F341F20401C4F201010A681A43CD
:101670000A609DF822306FF01E0202EB830200FA2E
:1016800002F20868904308603BE09DF822106FF07A
:101690001F0000EB8101012000FA01F341F2040177
:1016A000C4F201010A689A430A609DF822306FF083
:1016B0001E0202EB830200FA02F20868104308607F
:1016C0001FE09DF822106FF01F0000EB8101012048
:1016D00000FA01F341F20401C4F201010A681A435D
:1016E0000A609DF822306FF01E0202EB830200FABE
:1016F00002F208681043086003E000208DF8230020
:10170000FFE703E000208DF82300FFE703E000205F
:101710008DF82300FFE7FFE7FFE79DF823000AB0FD
:1017200080BD000080B584B00020039040F200002E
:10173000C2F20000FFF70AF800F086F840F20C0051
:10174000C2F2000000F0D0F8FFE740F20000C2F261
:10175000000000900121FFF759F840F20C00C2F29E
:101760000000029044F24021C0F20F01019100F00C
:1017700075F800980021FFF749F80199029800F0E8
:101780006DF8E2E783B0019001208DF80300019825
:1017900020B9FFE700208DF8030050E040F2A000E0
:1017A000C2F20000012101700078C0EB004040F25D
:1017B0009C01C2F200010860FFE740F29C00C2F207
:1017C0000000006801994968884219D2FFE740F299
:1017D000A000C2F20000017801310170017801EB34
:1017E000C101C90040F20802C2F200021160007893
:1017F000C0EB004040F29C01C2F200010860DCE74F
:101800000198406840F2A001C2F200010978B0FBE3
:10181000F1F140F29800C2F20000016040F20801CC
:10182000C2F20001096840F62802C4F200021180E9
:10183000006840F62C01C4F200010880FFE79DF823
:101840000B0003B07047000040F20C01C2F200012F
:10185000002008604FF47A704860704780B584B00B
:101860000390029101208DF80700039820B9FFE74B
:1018700000208DF807001AE0039840680090039854
:10188000029900F059F840F29001C2F200010020E4
:101890000860FFE740F29000C2F20000006808B95B
:1018A000FFE7F7E70398009900F046F8FFE79DF897
:1018B000070004B080BD000082B0019001208DF8C7
:1018C0000300019820B9FFE700208DF8030007E02E
:1018D0000198006840F28401C2F200010860FFE74D
:1018E0009DF8030002B0704780B582B001900120DE
:1018F0008DF80300019820B9FFE700208DF8030060
:1019000016E0FEF7F1FCFEF78FFE0198FFF73AFFB5
:101910008DF803000198FFF7CFFF8DF80300FEF765
:10192000A7FC8DF80300FEF793FEFEF787FEFFE7A6
:101930009DF8030002B080BD83B0029001910120A8
:101940008DF80300029820B9FFE700208DF803000E
:1019500051E040F2A000C2F20000012101700078C5
:10196000C0EB004040F29C01C2F200010860FFE7BA
:1019700040F29C00C2F2000000680199884219D22E
:10198000FFE740F2A000C2F20000017801310170CF
:10199000017801EBC101C90040F20802C2F2000265
:1019A00011600078C0EB004040F29C01C2F20001DF
:1019B0000860DDE7019840F2A001C2F20001097859
:1019C000B0FBF1F140F29800C2F20000016040F279
:1019D0000801C2F20001096840F62802C4F20002C0
:1019E0001180006840F62C01C4F2000108800198C3
:1019F00002994860FFE79DF8030003B070470000BC
:101A0000201A000800000020140000005001000807
:101A1000341A000818000020900600007001000829
:101A20000200002003000000480000000000000049
:041A3000E8030000C7
:04000005080001B539
:00000001FF
