:020000040800F2
:10000000A8070020B5010008BD010008BF010008D5
:10001000C1010008C3010008C5010008000000007C
:10002000000000000000000000000000C701000800
:10003000C901000800000000CB010008CD01000844
:10004000CF010008CF010008CF010008CF01000850
:10005000CF010008CF0100080D070008ED080008D7
:100060002D0900086D090008AD090008CF0100083E
:10007000CF010008CF010008CF010008CF01000820
:10008000CF010008CF010008CF010008CF01000810
:10009000CF010008CF010008CF010008ED090008DA
:1000A000CF0100082D0D0008CF010008CF01000886
:1000B000810D0008DD0D0008310E0008CF01000899
:1000C000CF010008CF010008CF010008CF010008D0
:1000D000CF010008910E0008E50E0008390F000856
:1000E0004D070008CF010008CF01000800F002F81A
:1000F00000F050F814A696E8000CB244B344DA4578
:1001000001D100F047F8BAE80F000FA696E83000DA
:10011000A5EB040504EB0607AAEB0704A7F101070A
:100120004FEA15154FEA3414A4F10104AC4201D38F
:1001300000F030F813F0010F18BFFB1A43F0010371
:1001400000F001F8DBE718471434000034340000F5
:10015000103A24BF78C878C1FAD8520724BF30C8F3
:1001600030C144BF04680C60704700007047000055
:100170000023002400250026103A28BF78C1FBD8B0
:10018000520728BF30C148BF0B6070471FB51FBD65
:1001900010B510BD00F031F81146FFF7F7FF01F080
:1001A0004BFF00F04FF803B4FFF7F2FF03BC00F081
:1001B00057F800000948804709480047FEE7FEE776
:1001C000FEE7FEE7FEE7FEE7FEE7FEE7FEE7FEE707
:1001D00004480549054A064B70470000C50C000855
:1001E000ED000008A8010020A8070020A8030020B7
:1001F000A8030020704770477047754600F02CF840
:10020000AE4605006946534620F00700854618B003
:1002100020B5FFF7DDFFBDE820404FF000064FF0AE
:1002200000074FF000084FF0000BAC46ACE8C009E7
:10023000ACE8C009ACE8C009ACE8C00921F007018E
:100240008D46704710B50446AFF300802046BDE8E8
:100250001040FFF7A8BF000000487047B000002022
:1002600001491820ABBEFEE72600020070470000DF
:1002700080B582B0019001208DF80300019820B96B
:10028000FFE700208DF803000DE00198002100F049
:1002900049FF8DF8030001980530012100F042FF6D
:1002A0008DF80300FFE79DF8030002B080BD000059
:1002B00080B582B0019001208DF80300019820B92B
:1002C000FFE700208DF803000DE00198012100F008
:1002D00029FF8DF8030001980530002100F022FF6E
:1002E0008DF80300FFE79DF8030002B080BD000019
:1002F00080B586B0059001208DF81300059820B9CF
:10030000FFE700208DF8130091E00598807A014600
:100310000391012804D0FFE70398032841D081E02E
:100320000598C07A013801460291032834D8029911
:10033000DFE801F0020E1A2640F24C00C2F2000083
:1003400044F62061016002F0D5FB8DF8130027E030
:1003500040F25800C2F2000044F62061016002F051
:10036000C9FB8DF813001BE040F26400C2F20000EC
:1003700044F62061016002F0BDFB8DF813000FE030
:1003800040F27000C2F2000044F62061016002F009
:10039000B1FB8DF8130003E000208DF81300FFE798
:1003A00044E00598C07A013801460191032834D809
:1003B0000199DFE801F0020E1A2640F27C00C2F239
:1003C000000044F62061016002F020FC8DF813006B
:1003D00027E040F28800C2F2000044F6206101608C
:1003E00002F014FC8DF813001BE040F29400C2F2FE
:1003F000000044F62061016002F008FC8DF8130053
:100400000FE040F2A000C2F2000044F6206101605B
:1004100002F0FCFB8DF8130003E000208DF81300C0
:10042000FFE703E000208DF81300FFE7FFE79DF8EA
:10043000130006B080BD000080B586B00590049121
:1004400001208DF80F00059820B9FFE700208DF8F6
:100450000F0081E00598807A01460291012804D0BE
:10046000FFE70298032839D071E00598C07A013877
:100470000146019103282CD80199DFE801F0020C14
:100480001620049940F24C00C2F2000002F076FB04
:100490008DF80F0021E0049940F25800C2F20000EC
:1004A00002F06CFB8DF80F0017E0049940F2640035
:1004B000C2F2000002F062FB8DF80F000DE004991B
:1004C00040F27000C2F2000002F058FB8DF80F00FD
:1004D00003E000208DF80F00FFE73CE00598C07AAC
:1004E00001380146009103282CD80099DFE801F07B
:1004F000020C1620049940F27C00C2F2000002F0C7
:10050000C9FB8DF80F0021E0049940F28800C2F287
:10051000000002F0BFFB8DF80F0017E0049940F2D5
:100520009400C2F2000002F0B5FB8DF80F000DE060
:10053000049940F2A000C2F2000002F0ABFB8DF87B
:100540000F0003E000208DF80F00FFE703E000201C
:100550008DF80F00FFE7FFE79DF80F0006B080BDA4
:1005600080B582B0019001208DF80300019820B978
:10057000FFE700208DF803001AE001980321817045
:10058000019A0020D070019AD171019908720198E6
:1005900000F05EFD8DF803000198053000F058FD75
:1005A0008DF803000198FFF7A3FE8DF80300FFE725
:1005B0009DF8030002B080BD80B58CB00B900A910D
:1005C00001208DF827000B9820B9FFE700208DF857
:1005D000270072E00A98B0F5806F04D3FFE740F27D
:1005E000FF300A9068E00A98B0F5007F2BD3FFE750
:1005F0000A98A0F2FF100A900A9802F0B0FD089045
:100600000A46089968464261016148F60001C4F251
:10061000D301C16000228260426002604FF08143DA
:100620001046114601F0C0FD02F06CFD0A900B98D7
:10063000FFF73EFE8DF827000B980A99FFF7FCFEA6
:100640008DF8270037E00A98B0F5FF7F2CD8FFE738
:100650000A9940F2FF10401A0A900A9802F07FFDB2
:1006600007900A46079968464261016148F6000111
:10067000C4F2D301C16000228260426002604FF088
:1006800081431046114601F08FFD02F03BFD0A90B8
:100690000B98FFF7EDFD8DF827000B980A99FFF7EF
:1006A000CBFE8DF8270005E00B9800F00BF88DF8D5
:1006B0002700FFE7FFE7FFE7FFE79DF827000CB003
:1006C00080BD000080B584B0029001208DF8070045
:1006D000029820B9FFE700208DF8070012E0029889
:1006E0000021009100F01EFD00998DF8070002988E
:1006F000053000F017FD8DF807009DF807008DF814
:100700000F00FFE79DF80F0004B080BD80B54EF2EA
:100710008021CEF20001086840F04000086040F2FD
:100720001441C4F20101086840F00100086040F281
:100730001410C2F20000006838B1FFE740F2141054
:10074000C2F2000000688047FFE780BD80B54EF22E
:100750008421CEF20001086840F48070086040F205
:100760001440C4F201000068800AC007B8B1FFE776
:1007700040F21441C4F20101086840F4806008604E
:1007800040F21810C2F20000006838B1FFE740F2F2
:100790001810C2F2000000688047FFE7A4E040F2B2
:1007A0001440C4F201000068C00AC007B8B1FFE7F6
:1007B00040F21441C4F20101086840F4006008608E
:1007C00040F21C10C2F20000006838B1FFE740F2AE
:1007D0001C10C2F2000000688047FFE783E040F28F
:1007E0001440C4F201000068000BC007B8B1FFE775
:1007F00040F21441C4F20101086840F480500860DE
:1008000040F22010C2F20000006838B1FFE740F269
:100810002010C2F2000000688047FFE762E040F26B
:100820001440C4F201000068400BC007B8B1FFE7F4
:1008300040F21441C4F20101086840F4005008601D
:1008400040F22410C2F20000006838B1FFE740F225
:100850002410C2F2000000688047FFE741E040F248
:100860001440C4F201000068800BC007B8B1FFE774
:1008700040F21441C4F20101086840F4804008606D
:1008800040F22810C2F20000006838B1FFE740F2E1
:100890002810C2F2000000688047FFE720E040F225
:1008A0001440C4F201000068C00BC007B8B1FFE7F4
:1008B00040F21441C4F20101086840F400400860AD
:1008C00040F22C10C2F20000006838B1FFE740F29D
:1008D0002C10C2F2000000688047FFE7FFE7FFE747
:1008E000FFE7FFE7FFE7FFE780BD000080B54EF2BE
:1008F0008021CEF20001086840F08000086040F2DC
:100900001441C4F20101086840F00200086040F29E
:100910003010C2F20000006838B1FFE740F230103A
:10092000C2F2000000688047FFE780BD80B54EF24C
:100930008021CEF20001086840F48070086040F227
:100940001441C4F20101086840F00400086040F25C
:100950003410C2F20000006838B1FFE740F23410F2
:10096000C2F2000000688047FFE780BD80B54EF20C
:100970008021CEF20001086840F40070086040F267
:100980001441C4F20101086840F00800086040F218
:100990003810C2F20000006838B1FFE740F23810AA
:1009A000C2F2000000688047FFE780BD80B54EF2CC
:1009B0008021CEF20001086840F48060086040F2B7
:1009C0001441C4F20101086840F01000086040F2D0
:1009D0003C10C2F20000006838B1FFE740F23C1062
:1009E000C2F2000000688047FFE780BD80B54EF28C
:1009F0008021CEF20001086840F40000086040F257
:100A00001440C4F2010000684009C007B8B1FFE714
:100A100040F21441C4F20101086840F0200008606F
:100A200040F24010C2F20000006838B1FFE740F227
:100A30004010C2F2000000688047FFE783E040F208
:100A40001440C4F2010000688009C007B8B1FFE794
:100A500040F21441C4F20101086840F0400008600F
:100A600040F24410C2F20000006838B1FFE740F2E3
:100A70004410C2F2000000688047FFE762E040F2E5
:100A80001440C4F201000068C009C007B8B1FFE714
:100A900040F21441C4F20101086840F0800008608F
:100AA00040F24810C2F20000006838B1FFE740F29F
:100AB0004810C2F2000000688047FFE741E040F2C2
:100AC0001440C4F201000068000AC007B8B1FFE793
:100AD00040F21441C4F20101086840F480700860DB
:100AE00040F24C10C2F20000006838B1FFE740F25B
:100AF0004C10C2F2000000688047FFE720E040F29F
:100B00001440C4F201000068400AC007B8B1FFE712
:100B100040F21441C4F20101086840F4007008601A
:100B200040F25010C2F20000006838B1FFE740F216
:100B30005010C2F2000000688047FFE7FFE7FFE7C0
:100B4000FFE7FFE7FFE780BD81B001208DF80300DC
:100B500042F60C41C4F20101086840F0010008604F
:100B60004EF20011CEF20001086840F000700860FB
:100B70009DF8030001B0704781B001208DF803009B
:100B80004EF20011CEF20001086840F000500860FB
:100B90009DF8030001B0704780B500F001F880BDFA
:100BA00084B000200390029041F20001C4F20201DF
:100BB000086840F480300860FFE741F20000C4F2AA
:100BC0000200006800F400300290039801300390A6
:100BD000FFE702990020019039B9FFE70398B0F5CB
:100BE000A06018BF01200190FFE70198C00700280E
:100BF000E3D1FFE741F20000C4F202000068800385
:100C0000002803D5FFE70120029002E000200290B7
:100C1000FFE70298012851D1FFE742F20001C4F238
:100C20000201086840F010000860086820F0070022
:100C30000860086840F00200086041F20401C4F254
:100C4000020100910868086008680860086840F4BC
:100C500080600860086820F47C100860086840F430
:100C6000E810086041F20001C4F20201086840F097
:100C700080700860FFE741F20000C4F202000068E3
:100C80008001002801D4FFE7F5E741F20401C4F236
:100C90000201086820F003000860086840F00200C4
:100CA0000860FFE741F20400C4F20200006800F0AF
:100CB0000C00082801D0FFE7F4E700E0FFE704B0EC
:100CC0007047000080B541F20002C4F202021068D1
:100CD00040F00100106041F20401C4F20201086812
:100CE0000023CFF6FF031840086010684FF6FF732B
:100CF000CFF6F66318401060106820F48020106072
:100D0000086820F4FE00086041F20801C4F2020104
:100D10004FF41F000860FFF73FFF4EF60851CEF278
:100D200000014FF00060086080BD000080B54EF209
:100D30008021CEF20001086840F00070086042F6A1
:100D40001040C4F201000068C007B8B1FFE742F6E6
:100D50001041C4F20101086820F00100086040F26F
:100D60006410C2F20000006838B1FFE740F264107E
:100D7000C2F2000000688047FFE7FFE780BD000087
:100D800080B54EF28021CEF20001086840F080501C
:100D900008601020C4F200000068C007E0B1FFE75F
:100DA0001021C4F20001086820F00100086040F240
:100DB0008411C2F200010120086040F26810C2F202
:100DC0000000006838B1FFE740F26810C2F200008E
:100DD00000688047FFE7FFE780BD000080B54EF266
:100DE0008021CEF20001086840F00050086040F217
:100DF0001040C4F200000068C007B8B1FFE740F23D
:100E00001041C4F20001086820F00100086040F2BF
:100E10006C10C2F20000006838B1FFE740F26C10BD
:100E2000C2F2000000688047FFE7FFE780BD0000D6
:100E300080B54EF28021CEF20001086840F080407B
:100E4000086040F61000C4F200000068C007E8B176
:100E5000FFE740F61001C4F20001086820F001002D
:100E6000086040F28811C2F200010120087040F2CF
:100E70007010C2F20000006838B1FFE740F2701055
:100E8000C2F2000000688047FFE7FFE780BD000076
:100E900080B543F60000C4F2010000688006002817
:100EA0000FD5FFE740F27810C2F20000006838B1B9
:100EB000FFE740F27810C2F2000000688047FFE7C9
:100EC000FFE74EF28421CEF20001086840F02000D6
:100ED000086043F60001C4F20101086820F0200018
:100EE000086080BD80B544F20040C4F20000006894
:100EF000800600280FD5FFE740F27C10C2F2000008
:100F0000006838B1FFE740F27C10C2F200000068D0
:100F10008047FFE7FFE74EF28421CEF20001086828
:100F200040F04000086044F20041C4F2000108684B
:100F300020F02000086080BD80B544F60000C4F2B7
:100F400000000068800600280FD5FFE740F28010FF
:100F5000C2F20000006838B1FFE740F28010C2F230
:100F6000000000688047FFE7FFE74EF28421CEF2E1
:100F70000001086840F08000086044F60001C4F2F7
:100F80000001086820F02000086080BD82B0019058
:100F900001208DF80300019820B9FFE700208DF8AB
:100FA000030013E00198C078022805D0FFE70198FC
:100FB000C078032809D1FFE741F21801C4F2020109
:100FC000086840F001000860FFE7FFE79DF80300B4
:100FD00002B0704783B0029001208DF8070002989C
:100FE00020B9FFE700208DF807002DE00298007877
:100FF0000146009140B1FFE7009801280DD0FFE7BE
:101000000098022812D01AE041F21801C4F202013D
:10101000086840F00400086015E041F21801C4F2CD
:101020000201086840F0080008600CE041F2180175
:10103000C4F20201086840F01000086003E00020DC
:101040008DF80700FFE7FFE79DF8070003B0704742
:1010500080B584B0039001208DF80B00039820B96F
:10106000FFE700208DF80B0057E00398FFF7B2FF71
:101070008DF80B000398FFF789FF8DF80B009DF8A2
:101080000B0030B1FFE7039800F0C6FC8DF80B00B1
:10109000FFE79DF80B0030B1FFE7039800F0ECF894
:1010A0008DF80B00FFE7039800780146019140B1ED
:1010B000FFE70198012811D0FFE7019802281AD014
:1010C00026E003984178012000FA01F240F60C0175
:1010D000C4F201010868904308601DE0039841785C
:1010E000012000FA01F240F60C41C4F20101086847
:1010F0009043086010E003984178012000FA01F263
:1011000041F20C01C4F2010108689043086003E059
:1011100000208DF80B00FFE7FFE79DF80B0004B0FF
:1011200080BD000086B005908DF8131001208DF869
:101130001200059820B9FFE700208DF8120096E014
:10114000059800780146039140B1FFE70398012814
:101150002DD0FFE70398022852D07AE09DF81300C3
:101160000146029120B1FFE7029801280DD019E055
:1011700005984178012000FA01F240F60C01C4F212
:10118000010108689043086010E00598417801204B
:1011900000FA01F240F60C01C4F2010108681043A4
:1011A000086003E000208DF81200FFE755E09DF88D
:1011B00013000146019120B1FFE7019801280DD0ED
:1011C00019E005984178012000FA01F240F60C413F
:1011D000C4F2010108689043086010E00598417866
:1011E000012000FA01F240F60C41C4F20101086846
:1011F0001043086003E000208DF81200FFE72CE0A8
:101200009DF813000146009120B1FFE700980128E6
:101210000DD019E005984178012000FA01F241F261
:101220000C01C4F2010108689043086010E00598C1
:101230004178012000FA01F241F20C01C4F20101EF
:1012400008681043086003E000208DF81200FFE7F3
:1012500003E000208DF81200FFE79DF8120028B18E
:10126000FFE79DF8130005990871FFE7FFE79DF878
:10127000120006B07047000084B0039001208DF882
:101280000B00039820B9FFE700208DF80B00BFE3A7
:1012900003984078072800F3C081FFE7039800789F
:1012A0000146019150B1FFE70198012800F09480B8
:1012B000FFE70198022800F01D81A9E10398C0789A
:1012C000E0B9FFE70398C078C0B9FFE7039840781A
:1012D0008000811C012000FA01F340F60001C4F2F5
:1012E00001010A689A430A60039A52789200033215
:1012F00000FA02F20868904308606CE00398C07836
:1013000001281DD1FFE70398C078012818D1FFE715
:10131000039840788000811C012000FA01F340F618
:101320000001C4F201010A681A430A60039A527864
:101330009200033200FA02F208689043086049E024
:101340000398C07802281DD1FFE70398C0780228CF
:1013500018D1FFE7039840788000811C012000FA33
:1013600001F340F60001C4F201010A689A430A60E1
:10137000039A52789200033200FA02F2086810438E
:10138000086026E00398C07803281DD1FFE7039882
:10139000C078032818D1FFE7039840788000811CAB
:1013A000012000FA01F340F60001C4F201010A68CD
:1013B0001A430A60039A52789200033200FA02F24A
:1013C00008681043086003E000208DF80B00FFE779
:1013D000FFE7FFE7FFE71FE10398C078E0B9FFE709
:1013E0000398C078C0B9FFE7039840788000811C5B
:1013F000012000FA01F340F60041C4F201010A683D
:101400009A430A60039A52789200033200FA02F279
:101410000868904308606CE00398C07801281DD1EB
:10142000FFE70398C078012818D1FFE703984078B8
:101430008000811C012000FA01F340F60041C4F253
:1014400001010A681A430A60039A52789200033233
:1014500000FA02F208689043086049E00398C078F7
:1014600002281DD1FFE70398C078022818D1FFE7B2
:10147000039840788000811C012000FA01F340F6B7
:101480000041C4F201010A689A430A60039A527843
:101490009200033200FA02F208681043086026E066
:1014A0000398C07803281DD1FFE70398C07803286C
:1014B00018D1FFE7039840788000811C012000FAD2
:1014C00001F340F60041C4F201010A681A430A60C0
:1014D000039A52789200033200FA02F2086810432D
:1014E000086003E000208DF80B00FFE7FFE7FFE74F
:1014F000FFE791E00398C078E0B9FFE70398C07870
:10150000C0B9FFE7039840788000811C012000FAF1
:1015100001F341F20001C4F201010A689A430A6032
:10152000039A52789200033200FA02F2086890435C
:1015300008606CE00398C07801281DD1FFE703988C
:10154000C078012818D1FFE7039840788000811CFB
:10155000012000FA01F341F20001C4F201010A681E
:101560001A430A60039A52789200033200FA02F298
:1015700008689043086049E00398C07802281DD1AC
:10158000FFE70398C078022818D1FFE70398407856
:101590008000811C012000FA01F341F20001C4F235
:1015A00001010A689A430A60039A52789200033252
:1015B00000FA02F208681043086026E00398C07839
:1015C00003281DD1FFE70398C078032818D1FFE74F
:1015D000039840788000811C012000FA01F341F259
:1015E0000001C4F201010A681A430A60039A5278A2
:1015F0009200033200FA02F208681043086003E028
:1016000000208DF80B00FFE7FFE7FFE7FFE703E0AF
:1016100000208DF80B00FFE7F9E1039840780F28D0
:1016200000F3F081FFE7039800780146009150B184
:10163000FFE70098012800F0A480FFE70098022847
:1016400000F03D81D9E10398C07800BBFFE7039823
:10165000C078E0B9FFE7039841786FF01D0000EB18
:101660008101012000FA01F340F60401C4F20101F6
:101670000A689A430A60039A53786FF01C0202EBDF
:10168000830200FA02F208689043086078E0039849
:10169000C078012821D1FFE70398C07801281CD128
:1016A000FFE7039841786FF01D0000EB81010120F6
:1016B00000FA01F340F60401C4F201010A681A437A
:1016C0000A60039A53786FF01C0202EB830200FA5F
:1016D00002F208689043086051E00398C07802283D
:1016E00021D1FFE70398C07802281CD1FFE70398B7
:1016F00041786FF01D0000EB8101012000FA01F339
:1017000040F60401C4F201010A689A430A60039A90
:1017100053786FF01C0202EB830200FA02F20868B1
:10172000104308602AE00398C078032821D1FFE71E
:101730000398C07803281CD1FFE7039841786FF025
:101740001D0000EB8101012000FA01F340F60401C5
:10175000C4F201010A681A430A60039A53786FF0D1
:101760001C0202EB830200FA02F2086810430860D0
:1017700003E000208DF80B00FFE7FFE7FFE7FFE73E
:101780003FE10398C07800BBFFE70398C078E0B959
:10179000FFE7039841786FF01D0000EB8101012005
:1017A00000FA01F340F60441C4F201010A689A43C9
:1017B0000A60039A53786FF01C0202EB830200FA6E
:1017C00002F208689043086078E00398C078012826
:1017D00021D1FFE70398C07801281CD1FFE70398C7
:1017E00041786FF01D0000EB8101012000FA01F348
:1017F00040F60441C4F201010A681A430A60039AE0
:1018000053786FF01C0202EB830200FA02F20868C0
:101810009043086051E00398C078022821D1FFE787
:101820000398C07802281CD1FFE7039841786FF035
:101830001D0000EB8101012000FA01F340F6044194
:10184000C4F201010A689A430A60039A53786FF060
:101850001C0202EB830200FA02F2086810430860DF
:101860002AE00398C078032821D1FFE70398C078C5
:1018700003281CD1FFE7039841786FF01D0000EBAF
:101880008101012000FA01F340F60441C4F2010194
:101890000A681A430A60039A53786FF01C0202EB3D
:1018A000830200FA02F208681043086003E0002097
:1018B0008DF80B00FFE7FFE7FFE7FFE7A1E00398E4
:1018C000C07800BBFFE70398C078E0B9FFE7039852
:1018D00041786FF01D0000EB8101012000FA01F357
:1018E00041F20401C4F201010A689A430A60039AB2
:1018F00053786FF01C0202EB830200FA02F20868D0
:101900009043086078E00398C078012821D1FFE770
:101910000398C07801281CD1FFE7039841786FF045
:101920001D0000EB8101012000FA01F341F20401E6
:10193000C4F201010A681A430A60039A53786FF0EF
:101940001C0202EB830200FA02F20868904308606E
:1019500051E00398C078022821D1FFE70398C078AE
:1019600002281CD1FFE7039841786FF01D0000EBBF
:101970008101012000FA01F341F20401C4F20101E6
:101980000A689A430A60039A53786FF01C0202EBCC
:10199000830200FA02F20868104308602AE0039804
:1019A000C078032821D1FFE70398C07803281CD111
:1019B000FFE7039841786FF01D0000EB81010120E3
:1019C00000FA01F341F20401C4F201010A681A436A
:1019D0000A60039A53786FF01C0202EB830200FA4C
:1019E00002F208681043086003E000208DF80B0045
:1019F000FFE7FFE7FFE7FFE703E000208DF80B00BC
:101A0000FFE703E000208DF80B00FFE7FFE7FFE7AB
:101A10009DF80B0004B070478AB0099001208DF842
:101A20002300099820B9FFE700208DF82300FEE28B
:101A300009984078072800F35981FFE70998007852
:101A40000146079148B1FFE70798012871D0FFE7E9
:101A50000798022800F0D98043E109988078014670
:101A60000691032860D80699DFE801F00219304793
:101A7000099840788100012000FA01F340F6000146
:101A8000C4F201010A689A430A60099A52789200E6
:101A9000013200FA02F208689043086048E00998B1
:101AA00040788100012000FA01F340F60001C4F201
:101AB00001010A681A430A60099A527892000132B9
:101AC00000FA02F208689043086031E00998407813
:101AD0008100012000FA01F340F60001C4F2010187
:101AE0000A689A430A60099A52789200013200FA11
:101AF00002F20868104308601AE0099840788100F3
:101B0000012000FA01F340F60001C4F201010A6865
:101B10001A430A60099A52789200013200FA02F2DE
:101B200008681043086003E000208DF82300FFE7F9
:101B3000DBE00998807801460591032860D8059973
:101B4000DFE801F002193047099840788100012050
:101B500000FA01F340F60041C4F201010A689A4319
:101B60000A60099A52789200013200FA02F208687B
:101B70009043086048E0099840788100012000FA0D
:101B800001F340F60041C4F201010A681A430A60F9
:101B9000099A52789200013200FA02F208689043E2
:101BA000086031E0099840788100012000FA01F3D3
:101BB00040F60041C4F201010A689A430A60099A9A
:101BC00052789200013200FA02F20868104308606D
:101BD0001AE0099840788100012000FA01F340F6EC
:101BE0000041C4F201010A681A430A60099A527856
:101BF0009200013200FA02F208681043086003E024
:101C000000208DF82300FFE76FE0099880780146F7
:101C10000491032860D80499DFE801F002193047E5
:101C2000099840788100012000FA01F341F2000197
:101C3000C4F201010A689A430A60099A5278920034
:101C4000013200FA02F208689043086048E00998FF
:101C500040788100012000FA01F341F20001C4F252
:101C600001010A681A430A60099A52789200013207
:101C700000FA02F208689043086031E00998407861
:101C80008100012000FA01F341F20001C4F20101D8
:101C90000A689A430A60099A52789200013200FA5F
:101CA00002F20868104308601AE009984078810041
:101CB000012000FA01F341F20001C4F201010A68B7
:101CC0001A430A60099A52789200013200FA02F22D
:101CD00008681043086003E000208DF82300FFE748
:101CE00003E000208DF82300FFE79FE1099840788A
:101CF0000F2800F39681FFE70998007801460391C9
:101D000050B1FFE70398012800F08680FFE70398B1
:101D1000022800F001817FE1099880780146029154
:101D2000032874D80299DFE801F0021E3A56099898
:101D300041786FF01F0000EB8101012000FA01F3F0
:101D400040F60401C4F201010A689A430A60099A44
:101D500053786FF01E0202EB830200FA02F2086869
:101D60009043086057E0099841786FF01F0000EB3E
:101D70008101012000FA01F340F60401C4F20101DF
:101D80000A681A430A60099A53786FF01E0202EB40
:101D9000830200FA02F20868904308603BE0099869
:101DA00041786FF01F0000EB8101012000FA01F380
:101DB00040F60401C4F201010A689A430A60099AD4
:101DC00053786FF01E0202EB830200FA02F20868F9
:101DD000104308601FE0099841786FF01F0000EB86
:101DE0008101012000FA01F340F60401C4F201016F
:101DF0000A681A430A60099A53786FF01E0202EBD0
:101E0000830200FA02F208681043086003E0002031
:101E10008DF82300FFE703E10998807801460191DE
:101E2000032874D80199DFE801F0021E3A56099898
:101E300041786FF01F0000EB8101012000FA01F3EF
:101E400040F60441C4F201010A689A430A60099A03
:101E500053786FF01E0202EB830200FA02F2086868
:101E60009043086057E0099841786FF01F0000EB3D
:101E70008101012000FA01F340F60441C4F201019E
:101E80000A681A430A60099A53786FF01E0202EB3F
:101E9000830200FA02F20868904308603BE0099868
:101EA00041786FF01F0000EB8101012000FA01F37F
:101EB00040F60441C4F201010A689A430A60099A93
:101EC00053786FF01E0202EB830200FA02F20868F8
:101ED000104308601FE0099841786FF01F0000EB85
:101EE0008101012000FA01F340F60441C4F201012E
:101EF0000A681A430A60099A53786FF01E0202EBCF
:101F0000830200FA02F208681043086003E0002030
:101F10008DF82300FFE783E009988078014600915F
:101F2000032874D80099DFE801F0021E3A56099898
:101F300041786FF01F0000EB8101012000FA01F3EE
:101F400041F20401C4F201010A689A430A60099A45
:101F500053786FF01E0202EB830200FA02F2086867
:101F60009043086057E0099841786FF01F0000EB3C
:101F70008101012000FA01F341F20401C4F20101E0
:101F80000A681A430A60099A53786FF01E0202EB3E
:101F9000830200FA02F20868904308603BE0099867
:101FA00041786FF01F0000EB8101012000FA01F37E
:101FB00041F20401C4F201010A689A430A60099AD5
:101FC00053786FF01E0202EB830200FA02F20868F7
:101FD000104308601FE0099841786FF01F0000EB84
:101FE0008101012000FA01F341F20401C4F2010170
:101FF0000A681A430A60099A53786FF01E0202EBCE
:10200000830200FA02F208681043086003E000202F
:102010008DF82300FFE703E000208DF82300FFE7A1
:1020200003E000208DF82300FFE7FFE7FFE79DF8BE
:1020300023000AB07047000080B584B000200390F0
:1020400040F29410C2F2000000F0F0FB40F22400D5
:10205000C2F20000FEF784FA40F21800C2F200005B
:10206000FEF77EFA40F20C00C2F20000FEF778FAAA
:1020700040F20000C2F20000FEF772FAFFE740F201
:102080005710C2F2000002900D2100F0EDFC029802
:102090000078452841D1FFE740F25710C2F2000016
:1020A000007B602839D1FFE740F25711C2F20001EE
:1020B0000191487840F25612C2F2000210708878FE
:1020C000CA7840EA022040F27412C2F20002108084
:1020D00008794A7940EA022040F27612C2F2000200
:1020E00010808879CA7940EA022040F21212C2F2C6
:1020F00000021080087A4A7A40EA022040F2101268
:10210000C2F200021080887AC97A40EA012040F2C7
:102110005411C2F200010880FFE740F25610C2F2EB
:10212000000000780B2825D1FFE740F27610C2F2BC
:1021300000000090018840F22400C2F20000FEF787
:102140003BFA0098018840F21800C2F20000FEF746
:1021500033FA0098018840F20C00C2F20000FEF74A
:102160002BFA0098018840F20000C2F20000FEF74E
:1021700023FA18E040F22400C2F20000FEF7A2FAAF
:1021800040F20C00C2F20000FEF79CFA40F2180088
:10219000C2F20000FEF796FA40F20000C2F2000020
:1021A000FEF790FAFFE76AE72DE9F04194B01D468B
:1021B00014460F4606461F991E981D9B1C9ADDF873
:1021C0006CE0DDF868C01397129611951094CDF865
:1021D0003CE0CDF838C00D930C920B910A90002092
:1021E000099008900C980D990E9A0F9B01F0C8F871
:1021F0000090019110981199129A139B01F0C0F868
:10220000024600980B46019900F022FE07910690C5
:102210000E9804900F9805900698029007980390E6
:102220000A980B99129A139B01F0AAF80246029899
:102230000B46039900F0A6FF049A059B00F060FD91
:10224000099108900898099914B0BDE8F081000040
:1022500080B584B0039001208DF80B00039820B95D
:10226000FFE700208DF80B0037E003208DF8080011
:1022700002208DF809000398007901380146009189
:1022800003281FD80099DFE801F002091017002089
:102290008DF8060006208DF8070017E000208DF865
:1022A000060007208DF8070010E001208DF80600D9
:1022B00000208DF8070009E001208DF806008DF858
:1022C000070003E000208DF80B00FFE70DF106008A
:1022D000FEF7BEFE8DF80B00FFE79DF80B0004B083
:1022E00080BD000080B584B0039001208DF80B0004
:1022F000039820B9FFE700208DF80B002FE00020A5
:102300008DF8060003208DF8080002208DF80900E2
:1023100003980079013801460091032814D80099E8
:10232000DFE801F002060A0E08208DF807000FE032
:1023300009208DF807000BE00A208DF8070007E060
:102340000B208DF8070003E000208DF80B00FFE75D
:102350000DF10600FEF77CFE8DF80B00FFE79DF8FF
:102360000B0004B080BD00008CB00A9001208DF8F5
:1023700027000A9820B9FFE700208DF8270019E10F
:1023800040F29C10C2F20000012101700078C0EB05
:10239000004040F29811C2F200010860FFE740F2ED
:1023A0009810C2F2000000680A990968884219D2A0
:1023B000FFE740F29C10C2F2000001780131017089
:1023C000017801EBC101C90040F24802C2F20002EB
:1023D00011600078C0EB004040F29811C2F2000199
:1023E0000860DCE70A98006840F29C11C2F2000124
:1023F0000978B0FBF1F140F29010C2F200000160E8
:1024000040F24801C2F20001096842F62842C4F2D3
:1024100001021160006842F62C41C4F2010108601B
:1024200042F60041C4F20101086840F080000860F3
:102430000A980079013801460091032800F2B18022
:102440000099DFE801F0022D588342F64441C4F2BE
:102450000101086840F40040086042F62041C4F2DF
:102460000101086840F001000860089042F6184138
:10247000C4F2010108684FF68F72104008600868C6
:1024800040F0600008600790086840F008000860AD
:102490000A98806842F63441C4F20101086084E081
:1024A00042F64441C4F20101086840F4004008606B
:1024B00042F62041C4F20101086840F010000860B3
:1024C000069042F61841C4F20101086848F6FF720E
:1024D00010400860086840F4C04008600590086833
:1024E00040F4006008600A98806842F63841C4F2FF
:1024F0000101086059E042F64441C4F20101086854
:1025000040F40040086042F62041C4F2010108682E
:1025100040F480700860049042F61C41C4F201014E
:1025200008684FF68F7210400860086840F060003D
:1025300008600390086840F0080008600A98806806
:1025400042F63C41C4F2010108602EE042F64441EB
:10255000C4F20101086840F40040086042F62041DE
:10256000C4F20101086840F480500860029042F60D
:102570001C41C4F20101086848F6FF72104008606F
:10258000086840F4C04008600190086840F40060AA
:1025900008600A98806842F64041C4F20101086070
:1025A00003E000208DF82700FFE79DF827008DF855
:1025B0002F00FFE79DF82F000CB0704788B0069001
:1025C00001208DF81700069820B9FFE700208DF84C
:1025D0001700F5E040F2A410C2F2000001210170E2
:1025E0000078C0EB004040F2A011C2F20001086088
:1025F000FFE740F2A010C2F20000006806990968E7
:10260000884219D2FFE740F2A410C2F2000001781C
:1026100001310170017801EBC101C90040F24402AF
:10262000C2F2000211600078C0EB004040F2A0113D
:10263000C2F200010860DCE70698006840F2A411CD
:10264000C2F200010978B0FBF1F140F28C10C2F245
:102650000000016040F24401C2F20001096840F24A
:102660002842C4F200021160006840F22C41C4F21A
:102670000001086040F20041C4F20001086840F027
:10268000800008600698007901380146009103280F
:1026900000F28D800099DFE801F00224466840F2E4
:1026A0002041C4F20001086840F00100086040F2D7
:1026B0001841C4F2000108684FF68F72104008609C
:1026C000086840F0600008600490086840F0080066
:1026D00008600698806840F23441C4F20001086046
:1026E00069E040F22041C4F20001086840F01000A7
:1026F000086040F21841C4F20001086848F6FF7211
:1027000010400860086840F4C04008600390086802
:1027100040F4006008600698806840F23841C4F2D6
:102720000001086047E040F22041C4F2000108685F
:1027300040F48070086040F21C41C4F20001086857
:102740004FF68F7210400860086840F06000086023
:102750000290086840F0080008600698806840F21F
:102760003C41C4F20001086025E040F22041C4F27F
:102770000001086840F48050086040F21C41C4F237
:102780000001086848F6FF7210400860086840F4CD
:10279000C04008600190086840F400600860069836
:1027A000806840F24041C4F20001086003E000206C
:1027B0008DF81700FFE79DF817008DF81F00FFE761
:1027C0009DF81F0008B0704783B0029001208DF87B
:1027D0000700029820B9FFE700208DF8070020E0ED
:1027E0000298C0780146009120B1FFE700980128C7
:1027F00009D011E043F20001C4F20101086820F49D
:10280000006008600CE043F20001C4F201010868B6
:1028100040F40060086003E000208DF80700FFE747
:10282000FFE79DF8070003B07047000080B582B055
:10283000019001208DF80300019820B9FFE70020E6
:102840008DF803001FE041F21801C4F2020108688C
:1028500040F480500860019800F01AF88DF80300E9
:10286000019800F0AFF88DF803000198FFF7ACFF76
:102870008DF8030043F20001C4F20101086840F042
:1028800040000860FFE79DF8030002B080BD000033
:1028900080B588B0079001208DF81B00079820B9FB
:1028A000FFE700208DF81B0088E041F21801C4F218
:1028B0000201086840F480500860079800780146DB
:1028C0000591E8B3FFE70598012872D1FFE740F2D0
:1028D0003F00C2F20000032383700221C17040F266
:1028E0003502C2F2000203929370D17040F23002BE
:1028F000C2F200020492002191700121D170FEF712
:10290000A7FB014603988DF81B10FEF7A1FB0146BB
:1029100004988DF81B10FEF79BFB8DF81B0043F20B
:102920000001C4F20101086840F400700860086802
:1029300040F480700860086840F0040008603CE0E3
:1029400040F23F00C2F20000002383700121C170F9
:1029500040F23502C2F2000201929370D17040F24F
:102960003002C2F200020292032191700221D17062
:10297000FEF76EFB014601988DF81B10FEF768FB11
:10298000014602988DF81B10FEF762FB8DF81B00C4
:1029900040F23A00C2F20000FEF75AFB8DF81B002D
:1029A00043F20001C4F20101086820F0040008604D
:1029B00003E000208DF81B00FFE7FFE79DF81B00F8
:1029C00008B080BD84B0039001208DF80B000398FF
:1029D00020B9FFE700208DF80B0040E00398407815
:1029E0000146019168B1FFE70198012812D1FFE784
:1029F00043F20001C4F20101086840F002000860DF
:102A00000CE043F20001C4F20101086820F002006A
:102A1000086003E000208DF80B00FFE70398807842
:102A20000146009120B1FFE70098012809D011E08C
:102A300043F20001C4F20101086820F001000860BF
:102A40000CE043F20001C4F20101086840F001000B
:102A5000086003E000208DF80B00FFE7FFE79DF81A
:102A60000B0004B07047000083B002900191012078
:102A70008DF80300029820B9FFE700208DF80300CD
:102A800021E0FFE70198E8B1FFE743F20C01C4F24F
:102A9000010100200860FFE743F20800C4F20100D2
:102AA0000068C00708B9FFE7F6E743F20C00C4F27C
:102AB0000100008802994A1C0292087001980138AE
:102AC0000190DFE7FFE79DF8030003B070470000C7
:102AD00082B0019001208DF80300019820B9FFE732
:102AE00000208DF8030000E0FFE79DF8030002B02E
:102AF0007047000080B584B0039001208DF80B0072
:102B0000039820B9FFE700208DF80B0031E041F277
:102B10001801C4F20201086840F40060086042F63F
:102B20000041C4F201010191086820F00100086031
:102B30000398FFF7D7FB8DF80B000398FFF714FC01
:102B40008DF80B000398FFF7C3FF8DF80B00FDF71E
:102B5000FBFF01998DF80B0042F61442C4F201020A
:102B6000106840F001001060086840F00100086043
:102B7000FFE79DF80B0004B080BD000084B0039017
:102B8000029101208DF80700039800790138014671
:102B90000091032820D80099DFE801F002091017FE
:102BA000029842F63441C4F20101086018E002982C
:102BB00042F63841C4F20101086011E0029842F681
:102BC0003C41C4F2010108600AE0029842F640412B
:102BD000C4F20101086003E000208DF80700FFE760
:102BE0009DF8070004B0704782B0019001208DF875
:102BF0000300019820B9FFE700208DF8030000E0F2
:102C0000FFE79DF8030002B07047000080B584B074
:102C1000039001208DF80B00039820B9FFE70020F6
:102C20008DF80B0031E041F21C01C4F2020108688A
:102C300040F00200086040F20041C4F2000101913E
:102C4000086820F0010008600398FFF701FB8DF889
:102C50000B000398FFF7B2FC8DF80B000398FFF709
:102C6000C3FF8DF80B00FDF787FF01998DF80B006E
:102C700040F21442C4F20002106840F001001060FB
:102C8000086840F001000860FFE79DF80B0004B001
:102C900080BD000084B00390029101208DF80700F0
:102CA00003980079013801460091032820D8009943
:102CB000DFE801F002091017029840F23441C4F233
:102CC0000001086018E0029840F23841C4F20001A7
:102CD000086011E0029840F23C41C4F20001086033
:102CE0000AE0029840F24041C4F20001086003E0AB
:102CF00000208DF80700FFE79DF8070004B070473B
:102D000010B591EA030F48BF83F0004300F1408300
:102D1000841A71EB030C05D2121943EB0C03001B50
:102D200061EB0C014FEA1154A4EB135CDFF81CE1DA
:102D30001EEA430F18BF9EEA445F00F0748021EA48
:102D4000045123EA0E0343F48013DCF1200E32D346
:102D500022FA0CFE10EB0E0023FA0CFE41EB0E01E2
:102D6000CCF1200E03FA0EFE10EB0E00CCF1200E7B
:102D700051F10001B1F5801F32D201EB045112FA7A
:102D80000EF2BDE8104058BF7047401C38BF5FEAE4
:102D9000420218BF7047002814BF20F0010041F123
:102DA00000014FEA410313F5001F38BF7047A1F13E
:102DB000C04100F0DFBA012A43EB0302ACF1200C62
:102DC000DCF11F0E32BF4FF0000E23FA0CF310EBB4
:102DD000030041EB0451B4EB115FD0D0A1EB0451DF
:102DE00001F58011490801EB04515FEA30000ED370
:102DF00050F1000038BF12FA0EFE08D1BDE81040B5
:102E0000C9E7401C38BF5FEA4202CAD1C3E7BDE848
:102E100010404FEA410313F5001F38BF7047A1F17E
:102E2000C04100F0A7BA9EEA445F08D011EA5E0FE5
:102E3000BDE8104004BF01F0004100207047BDE82C
:102E4000104070B500F048FA64FBBE3E0000E0FFA1
:102E50002DE9C04130B4DFF8A4C23CEA111418BF18
:102E60003CEA131400F0ED801CEA111481EA03051A
:102E700044EAD57418BF1CEA131500F0C880A4EB0F
:102E8000050404F17F7404F500344FF0004545EA71
:102E9000C12145EAC32341EA505143EA52534FEA64
:102EA000C0204FEAC222994208BF904200F09D80A4
:102EB0004FEA13650FF24416765D4FEA134506FBA1
:102EC00005F7C7F1807706FB07F74FEAD737A7FB6F
:102ED00003687642A7FB06CEC8F5803838BFA8F154
:102EE000010807FB08E6A6FB028C4FF0000EE6FB8C
:102EF00003CEDCF1000CCEF1004E38BFAEF1010E76
:102F0000A6FB0C584FF00007E6FB0E87A1FB08C696
:102F1000A0FB07CE16EB0E064FF0000545F10005AD
:102F2000E1FB076515F1E04E7EBFA4F580345FEA52
:102F300046066D4116F1800745F100054FEA172757
:102F400047EA05674FEA15254FEA0666A6F1DE4611
:102F5000B6F1805F20D9384605EBC47124F0010C2E
:102F600001EB0C11BCF1FE6F02D8F0BCBDE8008192
:102F700024425CBF01F5801E9EEAC47F02D4F0BCEF
:102F8000BDE80081244200F13980A1F1C041F0BCCC
:102F9000BDE8004100F0EEB94FEAD02040EA4150D0
:102FA0004FEAD1214FEAD22242EA43524FEAD323D9
:102FB000A7FB028607FB036605FB02661EEA0E0FEF
:102FC00058BFA6EB0056B6EB00564FEA520E4EEA3B
:102FD000C37E18EB0E0E56EB530EBCD518EB020851
:102FE0005E417F1C55F10005B5E74FF480154FF0A9
:102FF00000074FF000064FF00008ACE701F1C041B8
:1030000001F000414FF00000F0BCBDE800810CEA87
:10301000131511EA0C1F00D00CE013EA0C1F00F08E
:1030200026804FF0000081EA030101F00041F0BC6E
:10303000BDE80081F0BCBDE8004181EA030100F079
:1030400099B9F0BCBDE8004170B500F045F900BF8A
:10305000097EFC3E00F007B84FF0000081EA030152
:1030600001F00041704781EA030100F083B9F0BC30
:10307000BDE8004122494FF000007047FFFDFBF919
:10308000F7F5F4F2F0EEEDEBE9E8E6E4E3E1E0DE9B
:10309000DDDBDAD8D7D5D4D3D1D0CFCDCCCBCAC80D
:1030A000C7C6C5C4C2C1C0BFBEBDBCBBBAB9B8B734
:1030B000B6B5B4B3B2B1B0AFAEADACABAAA9A8A827
:1030C000A7A6A5A4A3A3A2A1A09F9F9E9D9C9C9BF5
:1030D0009A999998979796959594939392919190A0
:1030E0008F8F8E8E8D8C8C8B8B8A89898888878731
:1030F0008685858484838382828181800000FF07A6
:103100000000F87F4FEA1153A3F58063D3F11E034B
:10311000A8BFD3F1200C08DB4FF0004242EAC122E5
:1031200052EA505232FA03F0704709420BD4102B86
:10313000C4BF0020704703F5787CBCF1FF3F05D089
:103140004FF0FF3070474FF00000704770B500F04F
:10315000C3F800BF4992248000207047F0E7B0FA1E
:1031600080F310FA03F10AD0C3F11D0303F5806365
:103170004FEA03524FEA415002EBD12170474FF022
:103180000000704770B5DFF848C11CEA111E1EBF71
:103190001CEA13159EEA0C0F95EA0C0F00F06F80E5
:1031A00081EA03044EEAD47EAE4421EA4C1123EABC
:1031B0004C1341F4801143F48013AEF17F7EA1FBE8
:1031C000024CA0FB0365361955EB0C05A1FB034C23
:1031D0004CF10003A0FB021C16EB0C06654153F1F9
:1031E0000003094218BF46F0010613F4007F0BD11B
:1031F0004FEA03314FEA053041EA155140EA1650D3
:1032000034036FF003020AE04FEAC3214FEAC520FE
:1032100041EA555140EA5650F4026FF0020202EBC7
:103220002E4201EB025585EACE710AD05FEA440CCA
:1032300018BF24F0004450F1000041F1000120EAE1
:10324000D47040F2FE7C624500D270BDA84214BF2B
:103250004FF080444FF04044002E08BF0024BEF1E0
:10326000806FA8BFA1F1C041BDE8704080F28280AC
:1032700001F1C04101F000414FF0000070470CEA3D
:1032800013159EEA0C0F18BF95EA0C0F06D081EAC1
:10329000030E4FF000000EF0004170BD00F01CF86E
:1032A0008900013E00F007B800F009B84FEA430C6E
:1032B0005FEA5C5C08D081EA030100F05BB84FEA8A
:1032C000410C5FEA5C5CF6D102494FF000007047A8
:1032D0000000FF070000F87F0EF1020E2EF0030E33
:1032E0005EF8046B364205D4012A43EB030515F55D
:1032F000001F12D8012841EB010C1CF5001F0CD84F
:103300000ED14FEAD17C0CEB4C0C0CF1020C15F5F4
:10331000001F08BF4CEBD37C04E04FF0080C01E029
:103320004FEAD37C0CEB4C0526FA05F606F00706AF
:10333000B6F1040C06D20EEB860CBDE870404CF0E2
:10334000010C6047DFE80CF0090B02024FF000416E
:10335000A1F500214FF0000070BD1946104601286C
:1033600051EB010418BFD4F5001484BF002001F014
:10337000004170BD0808A0F500114FEA3101704707
:1033800010B591EA030F48BF83F000433FF5C0AC8E
:10339000841A71EB030C07D28CF0004C121943EB2A
:1033A0000C03001B61EB0C014FEA1154A4EB135CFE
:1033B000DFF8A4E11EEA430F18BF9EEA445F00F065
:1033C000B48021EA045123EA6E035242C3EB6E0338
:1033D00038BF5B1EDCF1200E25D322FA0CFE10EB69
:1033E0000E0043FA0CFE41EB0E01CCF1200E03FA65
:1033F0000EFE10EB0E00CCF1200E51F1000129D48D
:1034000001EB045112FA0EF2BDE8104058BF7047AC
:10341000401C1CBFB2F1004F704700280CBF491C74
:1034200020F00100704712EB020E43EB030218BFBD
:103430004FF0010E4EEA4202ACF1200CDCF11E0E00
:1034400056D943FA0CFE10EB0E00CCF11E0E51F1D2
:10345000FF31D5D50EF1010E12FA0EFE404141EBBF
:10346000010101EB445C5FEA5C5C10D901EB0451A3
:1034700010EBDE7038BFBEF1004FBDE8104018BF42
:10348000704700280CBF491C20F00100704734D25F
:103490004FEAD42C24F4006411F500111BD0B1FACA
:1034A00081F20B3AA41AA41ED2F12003914030FA03
:1034B00003F31943904001EBCC7101EB0451002C54
:1034C000BDE81040A8BF704701F1C04101F00041C4
:1034D0004FF000007047B0FA80F310FA03F102D108
:1034E000BDE810407047E41A173C4805C90AE2E7F6
:1034F00001EB0451BDE81040704749104FEA30001D
:1035000001EB0451BDE8104002E04FF000017047AC
:103510004A0008BF0042F8D0B2F5001F28BF70472C
:1035200001F000414FF0000070479EEA445F07D071
:1035300011EA5E0FBDE8104004BF00210020704773
:10354000BDE8104070B5FFF7C7FE00BF40DFF63E94
:10355000104683F0004170470000E0FF7C35000812
:1035600000000020AC0000005001000828360008D0
:10357000B0000020F806000070010008010E0000F5
:1035800000010F0000000103000900000000080016
:10359000000001040002000000000300000003041A
:1035A000000100000000000000000303000600000E
:1035B00000000700000000040001000005000000FA
:1035C000480000004800000000000000010000006A
:1035D00000000000000000000200000000000000E9
:1035E00000000000030000000000000000000000D8
:1035F00004000000000000000000000001000000C6
:1036000000000000000000000200000000000000B8
:1036100000000000030000000000000000000000A7
:0836200004000000000000009E
:04000005080001B539
:00000001FF
